:020000040800F2
:100000000010002049020008990200089902000827
:1000100000000000000000000000000000000000E0
:10002000000000000000000000000000990200082D
:1000300000000000000000009902000829060008E6
:1000400099020008000000009902000899020008C7
:100050009902000899020008990200089902000814
:100060000000000085070008B1070008FD07000830
:100070009902000899020008410A000800000000E7
:10008000D50600080000000000000000010700087D
:10009000000000002D070008590700089902000819
:1000A000000000009902000800000000A9060008F6
:1000B0000000000000000000000000000000000040
:1000C00010B5064C2378002B07D1054B002B02D02E
:1000D000044800E000BF0123237010BD2000002071
:1000E00000000000282E0008044B10B5002B03D0A0
:1000F0000349044800E000BF10BDC04600000000F6
:1001000024000020282E000802B471464908490046
:10011000095C49008E4402BC7047C04603B4714676
:10012000490840004900095A49008E4403BC704701
:10013000002243088B4274D303098B425FD3030A26
:100140008B4244D3030B8B4228D3030C8B420DD339
:10015000FF22090212BA030C8B4202D312120902C7
:1001600065D0030B8B4219D300E0090AC30B8B4205
:1001700001D3CB03C01A5241830B8B4201D38B03B3
:10018000C01A5241430B8B4201D34B03C01A524158
:10019000030B8B4201D30B03C01A5241C30A8B429B
:1001A00001D3CB02C01A5241830A8B4201D38B0286
:1001B000C01A5241430A8B4201D34B02C01A52412A
:1001C000030A8B4201D30B02C01A5241CDD2C3099C
:1001D0008B4201D3CB01C01A524183098B4201D318
:1001E0008B01C01A524143098B4201D34B01C01A03
:1001F000524103098B4201D30B01C01A5241C3087B
:100200008B4201D3CB00C01A524183088B4201D3E9
:100210008B00C01A524143088B4201D34B00C01AD5
:100220005241411A00D20146524110467047FFE741
:1002300001B5002000F006F802BDC0460029F7D045
:1002400076E770477047C0460D4885460D480E4911
:100250000E4A002302E0D458C4500433C4188C4220
:10026000F9D30B4A0B4C002301E013600432A24285
:10027000FBD300F0EBFA02F0A1FD02F0D1F9FEE7AA
:10028000001000200000002020000020A42E000804
:100290002000002058020020FEE74369013343613B
:1002A0007047000030B50300007A013804281AD8DE
:1002B000254ADC68FFF728FF031C181C2D00998ACB
:1002C000588B091A89B25981D16305221A7280228A
:1002D0001E4B520221681A6006224B7893431A0083
:1002E000042313434B7030BD998A588B0918E9E7F2
:1002F00080201749000424680860082061780143C1
:100300006170998AD98200211972D3688343D360BE
:10031000E9E7202021680E4C0D782060A0382843A2
:10032000012508704878A8434870802000042060A8
:100330000824487820434870998AD982002119728C
:10034000D368A343E3E7C046002C014018040048EB
:10035000180000482021064A03681160802219789D
:1003600052420A4301211A705A788A435A707047E0
:10037000180000488023102110B50824094A1B03E7
:10038000136043780B4343700378A34380240370C6
:10039000054B24061C6003788B43037080239B036A
:1003A000136010BD1804004818000048044B0120D9
:1003B0001A68120402D41B689B0818407047C04694
:1003C00010040048044B01201A68520402D41B6830
:1003D000C34018407047C0461004004800280BD0A6
:1003E00004280BD005280BD0063843425841054B52
:1003F00040421840C01870470348FCE70348FAE73A
:100400000348F8E7C0C62D00006CDC0200366E0120
:10041000001BB7007021034A000113688B43184387
:1004200010607047041002400321034A13688B4395
:10043000184310607047C0460410024080230349EF
:100440009B040A681A42FCD07047C0460010024064
:100450008023034A5B0411680B4313607047C04656
:1004600000100240802303499B020A681A42FCD014
:100470007047C046001002408023034A5B021168A7
:100480000B4313607047C046001002408022044BAB
:10049000D20119681143196019681142FCD07047E4
:1004A00018100240034B10B518684005400FFFF7C5
:1004B00095FF10BD04100240034A0449136800026E
:1004C0000B4018431060704704100240FFF8FFFF14
:1004D000034A0449136880040B40184310607047B6
:1004E00004100240FFFFC3FF8022044B92021968F0
:1004F0001143196019681142FCD070471410024072
:100500008022044BD2021968114319601968114204
:10051000FCD07047141002400122044B19681143AB
:10052000196019681142FCD07047C046141002408F
:100530008022044B12011968114319601968114295
:10054000FCD07047181002400421234B1A6813682E
:100550008B431360214A224B02391B6813688B437B
:100560001360204B1A68002393611F4A126893613D
:100570001E4A126893611E4A11680A681203120B20
:100580000A601C4A1C4912681C4A53801C4A1268A3
:100590000A685204520C0A601A491B4A12680A6817
:1005A0005204520C0A60194A194912680A68520426
:1005B000520C0A601749184A12680A685204520C11
:1005C0000A601649164A12680A685204520C0A60F8
:1005D000144A1268136570478400002000380140F7
:1005E0009000002070000020740000208000002097
:1005F0000400002088000020080002400030014074
:10060000080000201C0002400C0000201000002008
:100610003000024044000240140000205800024014
:10062000180000208C000020054B10B51C68002C21
:1006300005D0236820001B689847A468F7E710BD21
:1006400050010020037B002B0CD101330373064BB8
:100650005A684260002A00D090601A685860002AE8
:1006600000D118607047C04650010020F0B5012548
:10067000030041180A4E0B488B420FD008241A7809
:10068000504042102840070090B2002F01D0724025
:1006900090B2013C002CF4D10133EDE7F0BDC0462F
:1006A00001A0FFFFFFFF0000074B10B51C68002CE6
:1006B00005D0236820001B6898476468F7E7034B60
:1006C000034A1A6010BDC04668000020203801406F
:1006D0005F0A0200084B10B51C68002C05D0236887
:1006E00020001B6898476468F7E70821034A138ACB
:1006F0008B43138210BDC046600000200004004000
:10070000084B10B51C68002C05D0236820001B681E
:1007100098476468F7E70821034A138A8B431382DA
:1007200010BDC0465C00002000200040084B10B502
:100730001C68002C05D0236820001B68984764685B
:10074000F7E70821034A138A8B43138210BDC04682
:100750005800002000440140084B10B51C68002CD4
:1007600005D0236820001B6898476468F7E70821D4
:10077000034A138A8B43138210BDC04654000020E5
:1007800000480140084B10B51C68002C05D02368B8
:1007900020001B6898476468F7E70F23034A116835
:1007A0000B43136010BDC0465000002004000240FF
:1007B0000F4B70B51C68002C05D0236820001B6807
:1007C00098476468F7E7F0220A4D29680A432A60CF
:1007D000094A1468002C05D0236820001B6898473C
:1007E0006468F7E7F0232A681B0113432B6070BD90
:1007F0004C0000200400024048000020104B70B55F
:100800001C68002C05D0236820001B68984764688A
:10081000F7E7F0220B4D120229680A432A600A4AC0
:100820001468002C05D0236820001B689847646872
:10083000F7E7F0232A681B0313432B6070BDC04603
:1008400044000020040002404000002037B56B4601
:10085000DD1D002307221A492B700B6893431A00F1
:10086000012313430B60FFF707FEFFF7FBFD2C7816
:100870000134E4B22C70002CF9D12000FFF7CAFD3E
:100880002000FFF719FE0420FFF722FE80230D4A07
:100890005B0211680B431360FFF7DAFDFFF7CEFD33
:1008A0002B780133DBB22B70002BF9D10220FFF73C
:1008B000BBFD2B780133DBB22B70002BF9D137BD98
:1008C00000200240041002404A688B68002A0CD0C5
:1008D000002B07D093605A6000234B608B607047F9
:1008E0000360F8E742609360F6E7002BF8D10360FD
:1008F0004360F1E710B5037B0100002B04D0002317
:1009000003730248FFF7E0FF10BDC046500100200E
:10091000002310B54361FFF7EDFF10BD10B50400D3
:10092000024B0360FFF7E6FF200010BD582E0008C1
:1009300010B50400007BC0B205280DD8FFF7E4FB1A
:10094000030D1B57233D637B002B05D021002D4851
:10095000FFF7BAFF0023637310BD2B4B1A68120414
:1009600002D41B685B07F7D523691868FFF702FDFF
:1009700003232373F0E7244B1A685204F4D41B6852
:100980009B07E9D5F0E7E389A28A01339BB2E381B3
:100990009A42E1D801230822237323691B491B686B
:1009A0000A601878024310201A705A7882435A70ED
:1009B00020230B600023E381CEE7E389A28A013381
:1009C0009BB2E3819A42C7D8022380212373104A45
:1009D000236909021B68116010211A780A431A70F2
:1009E0005A788A435A702022084B1A60E2E7E3895A
:1009F000A28A01339BB2E3819A42ADD800232373CC
:100A0000D9E7C046500100201004004818040048EF
:100A100018000048084B10B51C68002C05D023684E
:100A200020001B6898476468F7E70821034A138A87
:100A30008B43138210BDC04664000020002C01408F
:100A400010B5FFF7E7FF10BD012370B50400037078
:100A50000D0014220021023002F0DDF920001422E2
:100A60000021163002F0D7F92000142200212A308C
:100A700002F0D1F92000142200213E3002F0CBF91F
:100A800020000A220021523002F0C5F92200002382
:100A900021006032E5651370A366114A114B643181
:100AA00063661368E466002B02D1116004E0130052
:100AB0005A68002AFBD159600023210063670A4A63
:100AC0000A4B703123671368A467002B02D11160B1
:100AD00004E013005A68002AFBD15960200070BD61
:100AE00068000020642E00084C000020702E0008D2
:100AF000F0B50500243585B004001022FF21280040
:100B000002F089F901235B426363102200216846E9
:100B100002F081F9E36B802219000126D2009818B7
:100B2000626B81420FD0013262630A780F2A08D8C3
:100B30004F78A2180532D7776F460A78BE54023133
:100B4000EEE7FF2AFBD1626B3B4952009B18C21AA9
:100B5000D210002A1BDD1E888E4203D15E888E4291
:100B600008D0023398422AD0012300203834237061
:100B700005B0F0BD9E888E4201D00433F2E7DE88D6
:100B80008E4201D00633EDE70833013AE1E7C21A9D
:100B90005210022A0AD0032A03D0012A0BD00300E4
:100BA000E0E71988244A9142DCD102331988224AAD
:100BB0009142D7D1023319881F4A9142D2D10423DE
:100BC0006A461178002934D05178002907D1511C88
:100BD00004AB00209942CBD124E00A00F1E79178E0
:100BE000002901D1911CF3E7D178002901D1D11C52
:100BF000EEE7013B111D002BEFD104AB5B1A022B7A
:100C000009D0032B03D0012B09D004A9E0E7137905
:100C1000002BDDD0511D0B78002BD9D001310B7882
:100C2000002BD5D0206A1022290002F0EBF8012019
:100C30009EE71100CCE7C046FFFF0000024B18689A
:100C40008004C00F7047C04610040048024B18686B
:100C5000C004C00F7047C0461004004820224368FB
:100C60000A491B6810B51C780A60A03A2243012487
:100C70001A705A78A2435A70802212040A6008221D
:100C800059780A435A700023037010BD18000048B9
:100C900070B504000078032800D984E0FFF734FA27
:100CA000024B84A2504D2B685B055ED4FFF7CEFF4C
:100CB000002820D08022602163684C481B68D20342
:100CC00002601A788A43110020220A4380211A7098
:100CD000474A4902116006215A788A4311000422CA
:100CE0000A435A708022082102605A788A435A7057
:100CF0000223237057E02B68DB0454D46025402284
:100D000063683A481B6802601978A9430A43802146
:100D10001A70374A4902116006215A788A43110035
:100D200004220A435A708022082102605A788A43BA
:100D30005A700123DDE72C4B1D688023DB001D402A
:100D400018D02022636829491B680A601878A03AE5
:100D5000024301201A705A7882435A70802212048A
:100D60000A60082259780A435A700022214B5A62BD
:100D70000323BEE7FFF76AFF002814D02022636830
:100D80001A491B680A601878A03A024301201A70B9
:100D90005A7882435A70802212040A6008225978D5
:100DA0000A435A70257070BD0F4B1B685B05C8D491
:100DB000FFF744FF0028F6D0202263680B491B6828
:100DC0000A601878A03A024301201A705A788243C8
:100DD0005A70802212040A60082259780A435A7015
:100DE000042386E7002384E7100400481800004825
:100DF00018040048002C0140037870B50400012B52
:100E00002BD0002B02D0022B53D070BD6025402286
:100E1000436832491B680A601878A843024380205F
:100E20001A702F4A4002106006205A788243100040
:100E3000042202435A70202218780A60A03A024322
:100E400001201A705A7882435A7080220A60082161
:100E50005A788A435A702070D7E7FFF7F7FE0028C8
:100E6000D3D0802163681D4A09041B6811601D49A5
:100E7000E068496A018080216020C9031160197807
:100E80008143080020210143802019701449400249
:100E900008600620597881430800042101435970F5
:100EA000802111605A7878398A435A70022323705E
:100EB000ABE7FFF7C3FE0028A7D0802163680904D1
:100EC0001A68064B1960082351780B435370054B81
:100ED00022695B6A13800323E9E7C04618000048D3
:100EE00018040048002C0140202243680A491B686E
:100EF00010B51C780A60A03A224301241A705A786F
:100F0000A2435A70802212040A60082259780A43C8
:100F10005A700023037010BD1800004880214368F8
:100F200009041A68044B1960082351780B43537065
:100F3000002303707047C0461800004810B5040035
:100F40000078013803280FD8FFF7DEF8020F121ED1
:100F5000FFF774FE002807D06068FFF7FBF9200058
:100F6000FFF7DCFF0023237010BDFFF76FFEF1E7F2
:100F70000A4B1021625E5B6A1BB29A42EFDAFFF7FE
:100F800065FE0028EBD1EFE7044B1021625E5B6A3F
:100F90001BB29A42E3DDFFF751FEF2E7002C01405D
:100FA000F7B58025030020261622875E6D428F420A
:100FB00001D19F82F7BD187AC0B2052807D8FFF784
:100FC000ADF80800BF00E0001A0136016F019982F8
:100FD000F0E76A4691800822D7489982C5682A437B
:100FE000C260426A12B2914253DA60244025DA6844
:100FF000D24E126835601778A7433D431570476A93
:101000001D8B7F1B3FB2B94221DB8025CC496D028D
:101010000D60062551781778A943023D2943517088
:1010200020213160A039394301276C461170517875
:10103000A488B9435170598B0C19A4B2C4631D72B2
:1010400080233360082153788B435370B2E7476A9B
:101050007F1B3FB2B942F3DA01210624B84F396051
:101060005778A743BC46022764462743577080271A
:10107000BF033760577839437F2751701178394063
:101080001170694689886C180321A4B2C46319726F
:10109000D6E7426A12B2914200DC8BE780266027D5
:1010A0002024DA68A54D1268F6032E601678BE4338
:1010B000264316701F8B466ABE1936B2B1421FDC3A
:1010C00080269F4976020E6006265178B1430E00B5
:1010D00004213143517021001678A0393143012693
:1010E0002C606C4611705178A488B1435170598BB3
:1010F000641A0221A4B2C463197280232B60A1E791
:10110000466ABE1936B2B142F7DD012106248C4E83
:1011100031605678A643B44602266446264356708C
:1011200080267F24B6032E6056780E4356701678BC
:1011300026406C46A4881670E41BA4B2C463DBE7A7
:101140007D481A8B446A9982141924B2A14214DC96
:101150008024D96864020D6879490C600624697896
:10116000A1430C00042121436970416A521892B2D4
:101170005A81C26305221A721CE7891A89B2C163B7
:1011800018E76D48426A12B291421BDA6B4801249B
:101190008446DA6812680660107828431070507828
:1011A000A043802450706046240404605078844634
:1011B000082064462043507000221A725A8B891A04
:1011C00009B2F4E6446A1A8B9982141924B2A14236
:1011D00000DAEFE6891A89B2C16301200621DA68D4
:1011E0001468574A106062788A43110002220A4349
:1011F00062701872DEE650481E8B446A7518A41B94
:10120000ADB224B29982C563A14200DAD2E6802150
:10121000DA68490214684A4A1160062162788A43F2
:10122000110004220A436270426A921B9FE74248FF
:10123000426A12B291421ADD404801248446DA68BB
:10124000126806601078284310705078A0438024FC
:101250005070604624040460507884460820644638
:101260002043507000221A725A8B5118A8E7446A22
:101270001A8B9982A41A24B2A14200DD9AE6511871
:1012800089B2C1630121DA6810682D4A1160427881
:1012900005318A43110002220A43427003226AE7A1
:1012A000284A9982106840060CD40A24185F8842A4
:1012B00008DA2148446A188B001900B2814201DA29
:1012C000598177E61068400606D41B4D188B6C6A6E
:1012D000041924B2A1421EDC1068400634D41268FE
:1012E000520600D466E6144C1A8B606A801A00B26B
:1012F000814200DB5EE60125D86851180668104877
:1013000089B2056070780535A8430500022028439E
:101310007070E163C2E701240626DA68091A1768CB
:10132000074A89B214607A78B24316000222324327
:101330007A70E9631C723DE6002C014018000048F9
:1013400018040048100000480A24185F8842C6DDCF
:1013500003481C8B406A001B00B28142BFDDAFE72F
:10136000002C014010B5037B0400002B05D003695D
:101370001868FEF7FFFF0323237310BD70B50268E2
:101380000400137A002B15D02021D3680C481B6869
:1013900001601D78A0392943012519705978A943A6
:1013A000597080210904016008215878014359705F
:1013B000002313726068FFF7D5FF0023A37370BD8D
:1013C0001800004810B504004068FEF7C3FF200075
:1013D000FFF7A4FDA068FFF7C5FF0023237010BD31
:1013E000F0B501261021CA4D42682B68571DFA7FBF
:1013F000DB0B33408A431B011343FB772B68FA7FD7
:101400009B0B491833408A435B01134385B0FB773C
:101410000400FFF713FC0300F87F3340B043184388
:10142000F8776768FFF712FC022105373040430068
:10143000F87F082288431843636829680193802352
:10144000DB001940F8770F007B1E9F41019BFF00D6
:101450000533D87F90433843D8772868DF7FC00AA8
:101460003040043A974380003843D8772868DF7FBC
:10147000800830403C32974380013843D877286851
:101480007F27F0400640D87FF60138400643DE77DC
:10149000A04E002901D000237362736A019A0120D3
:1014A00053841300117C20220833DF7FC9080140D8
:1014B0009743490139432700D977A6373A78110075
:1014C000014002928A0103924022D97F9143039AFC
:1014D00011430200D97790490968C9098A43D200AB
:1014E00003920822D97F9143039A1143D977E26886
:1014F0001178002294460A0703D4C906C90F484050
:101500008446624611011022D87F90430143D97767
:1015100020780138032826D8FEF700FE04004F008B
:10152000CE001101029B002B0DD120005C30FFF793
:1015300095FB02230721237063680733DA7F8A4310
:10154000110001220DE02B681B040ED420005C303A
:10155000FFF784FB05220720636822700733D97FD9
:1015600081430A43DA7705B0F0BD2B681B04FAD536
:1015700026005C363000FFF78BFB3378032B09D154
:10158000002340213B70636830000833DA7F8A43D0
:10159000DA77CCE7042B01D13000D9E72B681B05A3
:1015A000E1D422000123A532137040223B7063680E
:1015B0000833D97F0A43DA77EEE7029A002A0BD084
:1015C00001230721019A23700732D37F8B4319002F
:1015D00003230B43D377C6E72A6812050DD42100F5
:1015E0000122A5310A703A70D97F3F320A43DA7777
:1015F00020006830FFF7C2FEACE72B685B07F7D42A
:101600002B689B07F4D4FFF721FB002806D0A268C3
:10161000736A1A21525E1BB29A4221D1FFF70EFB68
:10162000002828D163680A229B5E002B31D0250058
:101630006835AB7B012B37D0022B00D093E7E36EEC
:101640001A7B002A03D01B7B032B00D08BE7FEF70D
:10165000ADFE00282DD1FEF7B5FE002829D182E786
:1016600020006830FFF78AFEA3685B8B7362726AA2
:1016700063685A8477E7A268736A1C21525E1BB2C2
:101680009A42CFD020006830FFF778FEA3689B8B8A
:10169000ECE7736A1BB2002BC9D12B685B05C6D47B
:1016A00001233B7023705EE7A36E1B7A002B00D0F2
:1016B00059E70023AB7356E72B681B0404D42000C2
:1016C0007830FFF711FC45E72B681B0400D44AE78C
:1016D000260078363000FFF78FFB3378032B1DD1BF
:1016E000A26863681A20115E3000D9831C21525E03
:1016F0001A84FFF7F9FB0223072123706368A734DC
:10170000DA1DD37F8B4306390B43D37721702AE749
:1017100010040048002C0140100000482B681B05F5
:1017200000D520E722000123A532137040223B7030
:10173000636830000833D97F0A43DA77C1E7802332
:101740002A681B011A4204D12200A5321278002A0D
:101750000DD12A681A420FD02B681B0500D402E76E
:1017600020004830FFF7EAFBA53400239AE7200069
:101770004830FFF7E3FBF6E62600A5363378002B6A
:10178000EAD1200001254830FFF71CFE3570260005
:101790008C363D703000FFF7BBF8FA23DB00336175
:1017A0003000FEF74FFF402063683A78D91D0833B8
:1017B0002A40DD7F920185431543DD770523CA7FEB
:1017C0003938824323701343CB77CCE60122044B94
:1017D00019689143196019681142FCD17047C046DD
:1017E0003000024070B58024074B24011B6823425F
:1017F00009D08568FFF7EAFF044B60351A68144387
:101800001C6001232B7070BD1C3801402038014042
:101810000122044B19689143196019681142FCD1E7
:101820007047C0461C00024010B520240A4B1B68BC
:1018300023420FD0FFF7ECFFFFF7C8FFFF22074B53
:101840001A600123064A11680B431360054B1A689E
:1018500014431C6010BDC04600000240340002402A
:10186000300002400400024010B5FEF749FE03209C
:1018700001210E4B1A6882431A601A680A431A60E3
:101880000B4B1A688A431A601A681A60094B1A6867
:1018900082431A601A681A60074B1A688A431A60F2
:1018A0001A681A60054B1A681A6010BD00040048D7
:1018B00004040048080400480C04004820040048C0
:1018C00010B5FEF711FE902380218020DB051A68F9
:1018D0000E4CC90122401A601A68114319600C4B62
:1018E0001968814319601A681A600A4B1A68224005
:1018F0001A601A681A60084B1A6882431A601A68DC
:101900001A60064B1A681A6010BDC046FF3FFFFF01
:1019100004000048080000480C000048200000486F
:1019200010B5FEF7E1FD902380214020DB051A6809
:101930000E4C490122401A601A68114319600C4B81
:101940001968814319601A681A600A4B1A682240A4
:101950001A601A681A60084B1A6882431A601A687B
:101960001A60064B1A681A6010BDC046FFCFFFFF11
:1019700004000048080000480C000048200000480F
:1019800010B5FEF7B1FD902380212020DB051A68F9
:101990000E4CC90022401A601A68114319600C4BA2
:1019A0001968814319601A681A600A4B1A68224044
:1019B0001A601A681A60084B1A6882431A601A681B
:1019C0001A60064B1A681A6010BDC046FFF3FFFF8D
:1019D00004000048080000480C00004820000048AF
:1019E00010B5FEF78DFDC0200F4B1A6882431A60B8
:1019F000402219680A4308211A600C4B1A688A436E
:101A00001A601A681A600A4B1A6882431A601A68C8
:101A10001A60084B1A688A431A601A681A60064BE3
:101A20001A681A6010BDC04600040048040400484B
:101A3000080400480C0400482004004810B5FEF7D4
:101A400053FD9022D20513680F489B009B0813603A
:101A500080231168DB050B4313600C4B19680140B0
:101A600019601A681A600A4A13689B009B08136081
:101A700013681360074B1A6802401A601A681A60EC
:101A8000054B5A685A6010BDFF7FFFFF04000048F5
:101A9000080000480C0000482000004810B5FEF780
:101AA0002FFD802120200F4B0F4C1A68C9002240C7
:101AB0001A601A68114319600C4B19688143196048
:101AC0001A681A600A4B1A6822401A601A681A606B
:101AD000084B1A6882431A601A681A60064B1A6823
:101AE0001A6010BD00040048FFF3FFFF0404004823
:101AF000080400480C0400482004004810B5FEF714
:101B0000FFFC802110200F4B0F4C1A684900224027
:101B10001A601A68114319600C4B196881431960E7
:101B20001A681A600A4B1A6822401A601A681A600A
:101B3000084B1A6882431A601A681A60064B1A68C2
:101B40001A6010BD00040048FFFCFFFF04040048B9
:101B5000080400480C04004820040048437B002B84
:101B60000CD1074B5A684260002A00D090601A6876
:101B70005860002A00D11860012343737047C046A3
:101B8000500100201A4B10B51A680400120419D431
:101B90001B685B0716D4037B002B13D10822036953
:101BA00014491B680A601878024310201A705A788A
:101BB00082435A7020230B601F3B23732000FFF7E2
:101BC000CDFF10BD237B022B05D123691868FEF7DA
:101BD000D1FB042309E0237B042BFAD0237B052BC4
:101BE000F7D0237BDBB2032BEBD12373E9E7C046AD
:101BF00010040048180400481B4B10B51A68040074
:101C000052041BD402211B680B4217D1037B002B0B
:101C100014D103698020154A00021B68106010204F
:101C20001A7802431A705A7882435A702022104B55
:101C300020001A602173FFF791FF10BD237B012B59
:101C400005D123691868FEF795FB052309E0237B7E
:101C5000042BFAD0237B052BF7D0237BDBB2032B9D
:101C6000EBD12373E9E7C046100400481800004890
:101C700018040048F8B50400092911D80800FEF737
:101C80004DFA0A00100016001E002A0054005C00E5
:101C900069007B026300626853885383A2681382E1
:101CA000F8BD626893889383A2689374F8E76368C9
:101CB000DB88D03B5A425341AB4A1370F0E7AA4B42
:101CC0001A78002A04D061680A890A83A168CA8147
:101CD00001221A70E4E72378022BE1D12600636821
:101CE00068360A255D5FB37BB581002B06D0012BDA
:101CF000D6D12900A06EFFF753F9D1E7E36E1A7B26
:101D0000002A02D01B7B032BCAD1FEF74FFB002811
:101D100006D02900A06EFFF743F90123B373BFE794
:101D2000FEF750FB0028F4D1BAE762689389138567
:101D3000A2681BB2A3859382B2E76368A21DDB8908
:101D4000D387A268D382ABE76368A2689B8AE385E6
:101D50001383A5E72378002B0CD163681A7C120744
:101D60009ED5012281492270DA8C1140804A0A43B3
:101D7000DA8495E7012B29D163681D7C2B07DE0FE0
:101D8000002B15DB20005C30FEF768FF072062683F
:101D90002670D11DCB7F08328343CB77137A1B0784
:101DA000DB0FD17F19305B0181430B43D37777E79A
:101DB00007263540022D00D072E720005C30FEF788
:101DC0004DFF0423237063689B19B9E0032B16D1E0
:101DD00063681B7C1B07DD0F002B00DA60E7200027
:101DE0007830FFF781F8072062682570D11DCB7F1E
:101DF00008328343CB77137A1B07DB0FD1E7022B23
:101E000000D0A2E063681B7C1A07D50F002A04DB10
:101E100020006830FFF7B2FAE5E7DA0601D49B0646
:101E200003D520006830FFF7A9FA63685A7C1307CE
:101E3000DB0F520730D5002B06D1230068339B7B84
:101E4000002B15D0022B1FD06368E56E5B7CDB0690
:101E500052D5FEF7B7FA002837D010212B691A683F
:101E6000444B1960802351785B420B43537030E040
:101E7000FEF79CFA002802D1E06EFFF783FE2300F4
:101E8000022268339A73DFE7FEF790FA0028DBD16D
:101E9000E06EFFF777FED7E7002BD5D0230068333D
:101EA0009B7B002B09D0022BCED1FEF78BFA0028AA
:101EB000CAD1E06EFFF7A0FEC6E7FEF783FA00285E
:101EC000DDD1E06EFFF798FED9E7FEF76FFA002844
:101ED000C3D1072663681D7C3540022D1FD1200029
:101EE0006830FFF74BFA0423626823709219D37F9E
:101EF000B3431D43D577D3E6FEF764FA002809D033
:101F000080212B6949031A681A4B19607F21537885
:101F10000B40ABE7FEF74AFA0028F1D1D9E7042DD0
:101F200000D0BDE62300A7331B78002B00D0B7E616
:101F300020006830FFF722FA032323706368073319
:101F4000DA7FB2431543DD77AAE6042B00D0F1E037
:101F500063681B7C1A07D50F002A0DDB2000483070
:101F6000FFF730FA3FE7C0466C000020F8DFFFFFC4
:101F70000320000018040048DB0603D52000483089
:101F8000FEF7CCFF63681B7C9B0602D5206DFFF734
:101F9000E9F96268517C0B07DB0F490758D5002B24
:101FA00005D1137C9B0602D4206DFFF7EBFD63681F
:101FB000E06C1B7C5B0654D48021A54A890303682E
:101FC0001160012259780A437F215A701A780A4019
:101FD0001A706168E36C0D7C1B685A787F2D43D8BA
:101FE00080259C486D0205600625AA431500042241
:101FF0002A435A704D7CAA07D20FE80764D5002AFD
:1020000009D10A7CD20606D4220048321578002D68
:1020100031D0022D47D04D7C5A78E80600D482E0BA
:1020200010258C48056080204042024307265A70E4
:102030000D7C3540012D00D032E6874B1B681B0517
:1020400000D42DE620004830FFF7BCF90223B9E6A2
:10205000002BACD0137C9B06A9D4206DFFF7CCFDE0
:10206000A5E7FEF777F9B4E701257A48056005355D
:10207000AA43043DBCE7784D2D68A804CBD4802545
:102080006026734FED033D601D78B5432E0020257B
:1020900035431D7080253D6008265D78B5435D7031
:1020A00001251570B7E78026694D36042E6080261D
:1020B0006027F6032E601E78BE43370020263E437D
:1020C0001E7080262E60E7E7002AA4D00A7CD20684
:1020D000A1D4250048352A78002A0FD0012A9AD1A8
:1020E00080225B4E12046020326040221F783260F2
:1020F00087433A431A70802232600DE0564A1268D4
:10210000D20488D4602040221E78514F86433A6022
:1021100032431A7080223A6008265A78B2435A70C5
:1021200002222A7077E780254A486D0305607F20E8
:1021300002407BE7052B00D0B2E507256268137CDF
:102140002B40022B0CD121008C314869096988424F
:1021500006D3042150192170C17FA9430B43C377D3
:10216000137C1B07D90F002B00DA99E52170D38C63
:102170003A490B40D38493E52178042900D08FE5B8
:102180006368DA7C50062ED5260048363278002A5D
:1021900000D085E580275D8A314BAD045B6AAD0CCC
:1021A0005B1B3382E06C2B4B7F0202681F600627AB
:1021B0005378BB430B435370FEF7CCF8002D0FD080
:1021C000E36C60241A68402311782148A14303601E
:1021D0000B43137080230821036053788B435370A3
:1021E000032333705CE5D20900D159E52600483657
:1021F0003278002A00D053E580275D8A184BAD0461
:102200005B6AAD0CEB183382E06C124B7F02026804
:102210001F6006275378BB430B435370FEF79AF8B1
:10222000002D12D080226021E36C09481B68D20384
:1022300002601A788A43110020220A431A70802211
:10224000082102605A788A435A700423C9E7C046BD
:10225000180000481804004810040048F8DFFFFF89
:10226000002C014070B5FEF73FF99023DB051A689A
:10227000104D114C2A401A608022196892020A43BC
:102280001A600E4B1868204018601A681A600C4BD0
:102290001968294019601A681A600A4B1A682240A6
:1022A0001A601A681A600223074A51680B43536088
:1022B00070BDC046FFFFFCFFFFFEFFFF04000048AB
:1022C000080000480C0000482000004870B5FEF7E8
:1022D0000BF99023DB051A68104D114C2A401A6047
:1022E0008022196812030A431A600E4B18682040B6
:1022F00018601A681A600C4B1968294019601A682E
:102300001A600A4B1A6822401A601A681A60202361
:10231000074A51680B43536070BDC046FFFFF3FF8F
:10232000FFFDFFFF04000048080000480C000048C3
:102330002000004810B5FEF7D7F89023C020DB0539
:102340001A6882431A60802219680A4308211A60B9
:102350000C4B1A688A431A601A681A600A4B1A688A
:1023600082431A601A681A60084B1A688A431A6016
:102370001A681A608023064A5B0111680B431360D8
:1023800010BDC04604000048080000480C0000488A
:102390002000004810B5FEF7A7F890233020DB0599
:1023A0001A6882431A60202219680A4304211A60BD
:1023B0000C4B1A688A431A601A681A600A4B1A682A
:1023C00082431A601A681A60084B1A688A431A60B6
:1023D0001A681A608023064A5B0011680B43136079
:1023E00010BDC04604000048080000480C0000482A
:1023F0002000004810B5FEF777F890230C20DB058D
:102400001A6882431A60082219680A4302211A6076
:102410000B4B1A688A431A601A681A60094B1A68CB
:1024200082431A601A681A60074B1A688A431A6056
:102430001A681A601023054A11680B43136010BD17
:1024400004000048080000480C0000482000004834
:1024500070B50E000500FFF76DFFFFF79BFFFFF75C
:10246000C9FFFEF713F83468FEF71CF82100FDF7EA
:102470005FFE3B4B3B4C18603379012B00D06BE087
:1024800080232268DB00134323607379002B5FD025
:10249000802322689B001343334A23601368334927
:1024A0001940B37901261B030B43136004232168F1
:1024B0000B432360082321680B43402123602C4BEE
:1024C0001868014319608021186801432A201960A7
:1024D00028490860802110680904014311608022A6
:1024E000196852000A431A6080221968D2010A430F
:1024F0001A60236833432360FEF70EF81E4B1F4A11
:102500001D601F4BA0211A60FF221E4B1A60002283
:102510001D4B1A60196019680E431E601B4B1C4945
:102520001D601C4B19601C4B1A6090321A6080228F
:102530002168D2040A4322608022184912050A60E9
:102540000222186802431A608023DB000B6070BD12
:102550002368134A13409FE72368124AFAE7C046EC
:102560000C3801400038014004380140FFCFFFFF24
:1025700008380140143801403C0002402438014032
:10258000380002403400024030000240280002407F
:1025900028380140240002401C00024000E100E015
:1025A000FFFDFFFFFFFBFFFF38230A7813B5134041
:1025B000082B23D0102B24D0182B25D0202B25D04E
:1025C000282B26D0302B26D0383B59424B4113497B
:1025D0005B420B40962189015B1800936B46D40740
:1025E00091075207C90FD20F52005971E40F694683
:1025F000C06D1C719A71FFF72BFF13BDE1239B0186
:10260000EBE79623DB01E8E7E123FBE796231B02D8
:10261000E3E7E123FBE796235B02DEE7809C010012
:102620000023F0B5E04FBDB00CAA13733A0010932D
:102630000D9311930E93DD4B08320CA80C9210935E
:10264000FEF700F8119A109B9A42FBD30025D84B55
:1026500012ACD84E63602633E3602570A660FFF7A6
:1026600001FEFFF733FEFDF763FF8021D24B4900E7
:102670001A6A70200A431A62072299689143063A3F
:1026800011439960D96981438C461021604601430A
:102690000320D96199698143114399619969C748B8
:1026A00001408020400008439861F020D9698143AF
:1026B000080050210143D9615D6219880A431A80DC
:1026C0001423F25E338BA2858022BD49E3856161CC
:1026D000BC4B15A92162D20116A9A56125776577A2
:1026E000E58361621C951A60B74A1368AB4203D157
:1026F00017AB136005E013005A68002AFBD117AA34
:102700005A600025B14BF18A236321AB1D7055231C
:102710000CAA9B181D701E230CA81B18D98724AB6C
:102720001D7016AB636563662367329333001A33FB
:10273000339333001EA92165E1661C332FA90D8058
:1027400034938E2138AB1D70802329A8057017A8FB
:10275000A0660CA8091815AA5B020D70083730A9ED
:102760000D702264E2642266E2676563A563E58713
:1027700036953795399535973A953B93FFF774F829
:10278000FFF79EF8FFF7CCF8FFF7FAF8FFF728F904
:10279000FFF754F9FFF782F9FFF7B0F9FDF7D4FE20
:1027A0008B4B83481B6801249D610723C382F389F7
:1027B000FF350383338A4383B37C037083831A23F7
:1027C000F25EC2831C21735E0384B18A42860200DA
:1027D0000832D387018503003F215633C187811C0E
:1027E0001C70CD87030031007A4A4833103184854C
:1027F0001A80FFF7D9FE0A95089412A8FEF7F0FD9B
:102800006B4A130060331978C9B20791002900D1CF
:102810004AE100211970704B0A981B689BB2C61AD6
:10282000D36D12781D78AA4259D10D000223033BC3
:102830002F0002950195072B5AD81800FDF76EFC62
:102840005D0074008D00D0000B0010011C015100D0
:1028500006260623F1E7564B7C00DA6D07990992AC
:10286000073294461A190592002204923A00523215
:102870009B180B936B46019A1B8A9A4200D8CEE0B4
:10288000049A0B9B9B5C059A0393634618785B78CC
:1028900000020343508D1BB202000598C08F0690C2
:1028A0000398002800D1ABE014B22000DA17E40F3F
:1028B00083425441069A214012B29A4204DA069A9F
:1028C00050424241D3B20393039B1940049B01330E
:1028D000049302239C44059B02330593CAE7002D11
:1028E000A4D0FEF773FF0A9A3B4B1A603B4AD7E02D
:1028F0000023072EA1D807339FE72D4BB11EDC6DB7
:10290000C9B22000A419FDF7B1FEA31E19780A234D
:10291000C2B2033B914290D1013C00122278C0B276
:1029200082428AD1063B88E7214BDB6D9A78DF78BB
:10293000120217431A795979120211437A18013A8F
:10294000019195B25A780223032A00D175E7013329
:10295000102A00D171E7089B4FE00A23033B082EA1
:1029600000D06AE7092D47D8019B11495B009C46BE
:102970006246CB6D9A700022019B934210DDBB181A
:1029800008335B00CB18DC88C86D56008019241210
:10299000C470C86DDB88861901323371D2B2EBE79F
:1029A0006646033655E7C0468C2E0008B80B00007B
:1029B000D400002094000020002C0140FFFCFFFF09
:1029C0007C2E000800E100E064000020882E000852
:1029D0001C000020E02E00003400024030000240C5
:1029E000019B5A000A230932033BB24200D024E77C
:1029F000033B092D00D820E70223029305231CE79F
:102A000003989BB29342404101400698079A834243
:102A100003D9020050424241D2B2114056E703238B
:102A20000029EAD00023214C019A93420DDA09983B
:102A300059004118C879FA18097A52000002A21800
:102A4000084301335080DBB2EEE7BD4200D2FFE61F
:102A50007C1C3900A4B212A8FFF70CF92700F4E798
:102A60008023124A5B42D16D0326487803434B70A2
:102A7000D36D029A9A70ECE60C4CF1B2E56D280029
:102A8000FDF7F4FDA855E36D00129B195870FEF791
:102A90009DFEFEF7BDFE064AB31C9BB21360054ABD
:102AA000136808990B43136030BFA6E6D4000020DA
:102AB000200002401C000240044B1A69120603D594
:102AC000034A5A60034A5A607047C04600200240D9
:102AD00023016745AB89EFCD70B5464D04002878DA
:102AE000042818D8FDF710FB031D39586D0023008A
:102AF000383319780323002911D13F4A206A13780B
:102B0000E4180534C65CE07F864207D10133DBB2AE
:102B1000102B01D0137070BD1170FCE701232B70D6
:102B2000F9E7364EF368DB07F5D433691B06F2D5B7
:102B3000FFF7C2FF01233269134333612E4BE06B71
:102B40001978236A5A5C2E4B1A701B78626B1B0231
:102B50000B43520013520223E1E7284BDA68920636
:102B6000D9D52022D9680A43DA60802219690A433C
:102B70001A61234B1A78204B1B78E3180533DA7758
:102B80008022636B920001336363934202D9012375
:102B9000383423700023C2E7184CE368DB07BAD44B
:102BA00023691B06B7D5FFF787FF0223226913436A
:102BB0002361144B6361402322691343236104237F
:102BC000ADE70E4BDA689206A5D52022D96800261B
:102BD0000A43DA608022196920000A431A6123003F
:102BE00038331E7024301022FF2100F014F9666380
:102BF0002E7090E73E0000203C00002000200240A4
:102C00003D000020007C0008424B434AF0B51A60AA
:102C10009022424BD2051A60414B424A42491A6007
:102C2000424B434A01241A60424B434A99B01A600E
:102C3000424B434A1A60434B434A1A60434B444A4F
:102C40001A60444B444A1A600023444A136053609C
:102C5000434A5160042193601068014311600221CE
:102C600010680143116011683E48214311603E4ADB
:102C7000C381038242613D4A436082618022D20166
:102C8000828302000E32026201225242426302003B
:102C90003832836003731370354B364FC363802320
:102CA000354A8474076011690B431361FDF720FFF7
:102CB000051E20D12E2610223049684600F0A2F8C9
:102CC0006E441022694604A800F09CF8102204A962
:102CD000300000F097F8012308AC5B42636316AB49
:102CE0001D70234B6560A560257320000897266240
:102CF000E363FDF713FE1B4C2000FDF7A3FC204A05
:102D00002049200000F044F81F492048FDF79CFEB0
:102D100019B0F0BD840000200010024070000020B7
:102D200074000020000400487FBB000078000020F1
:102D3000000800487C000020000C004880000020B3
:102D40000014004890000020003801408C00002052
:102D5000002C01408800002000300140500100207C
:102D600010E000E094000020E803B80B0E0000C063
:102D7000007C0008582E000800200240402E000869
:102D8000000000201D09000858010020D400002088
:102D90000B0010B50100180000F002F810BD000093
:102DA00010B5040004481300002804D00A000220D3
:102DB000210000E000BF10BD0000000070B500263B
:102DC0000C4D0D4C641BA410A64209D1002600F046
:102DD0002BF80A4D0A4C641BA410A64205D170BD05
:102DE000B300EB5898470136EEE7B300EB5898472D
:102DF0000136F2E7982E0008982E0008982E000859
:102E0000A02E0008002310B59A4200D110BDCC5C62
:102E1000C4540133F8E703001218934200D17047FD
:102E200019700133F9E70000F8B5C046F8BC08BCDA
:102E30009E467047F8B5C046F8BC08BC9E46704731
:102E4000000000000100E803B80B0E0000C00040C5
:102E50000000000000000000D92A00080000000067
:102E600000000000E517000800000000000000005E
:102E7000291800080000000000000000A50200085A
:102E80000000000000000000310900080000000000
:082E9000000000009B02000895
:082E9800E9000008092C000804
:042EA000C100000865
:102EA4000000000000000240080002401C00024034
:102EB4003000024044000240580002400000004834
:0400000508000249A4
:00000001FF
