:020000040800F2
:100000000010002049020008990200089902000827
:1000100000000000000000000000000000000000E0
:10002000000000000000000000000000990200082D
:100030000000000000000000990200081D060008F2
:1000400099020008000000009902000899020008C7
:100050009902000899020008990200089902000814
:100060000000000079070008A5070008F107000854
:100070009902000899020008350A000800000000F3
:10008000C90600080000000000000000F506000896
:1000900000000000210700084D0700089902000831
:1000A0000000000099020008000000009D06000802
:1000B0000000000000000000000000000000000040
:1000C00010B5064C2378002B07D1054B002B02D02E
:1000D000044800E000BF0123237010BD2000002071
:1000E00000000000642D0008044B10B5002B03D065
:1000F0000349044800E000BF10BDC04600000000F6
:1001000024000020642D000802B47146490849000B
:10011000095C49008E4402BC7047C04603B4714676
:10012000490840004900095A49008E4403BC704701
:10013000002243088B4274D303098B425FD3030A26
:100140008B4244D3030B8B4228D3030C8B420DD339
:10015000FF22090212BA030C8B4202D312120902C7
:1001600065D0030B8B4219D300E0090AC30B8B4205
:1001700001D3CB03C01A5241830B8B4201D38B03B3
:10018000C01A5241430B8B4201D34B03C01A524158
:10019000030B8B4201D30B03C01A5241C30A8B429B
:1001A00001D3CB02C01A5241830A8B4201D38B0286
:1001B000C01A5241430A8B4201D34B02C01A52412A
:1001C000030A8B4201D30B02C01A5241CDD2C3099C
:1001D0008B4201D3CB01C01A524183098B4201D318
:1001E0008B01C01A524143098B4201D34B01C01A03
:1001F000524103098B4201D30B01C01A5241C3087B
:100200008B4201D3CB00C01A524183088B4201D3E9
:100210008B00C01A524143088B4201D34B00C01AD5
:100220005241411A00D20146524110467047FFE741
:1002300001B5002000F006F802BDC0460029F7D045
:1002400076E770477047C0460D4885460D480E4911
:100250000E4A002302E0D458C4500433C4188C4220
:10026000F9D30B4A0B4C002301E013600432A24285
:10027000FBD300F0E5FA02F03FFD02F08DF9FEE756
:10028000001000200000002020000020E02D0008C9
:100290002000002050020020FEE743690133436143
:1002A0007047000030B50300007A0138042819D8DF
:1002B000224AD968FFF728FF0317031728001424E0
:1002C000185F0968588180B2D06305221A728022B3
:1002D0001B4B52021A6006224B7893431A000423E8
:1002E00013434B7030BD80200C6816490004086031
:1002F0000820617801436170998AD98200211972BE
:10030000D3688343D360EDE7202009680D4C0D7856
:100310002060A0382843012508704878A843487019
:100320008020000420600824487820434870998A7F
:10033000D98200211972D368A343E3E7002C01405E
:1003400018040048180000482021064A036811607C
:100350008022197852420A4301211A705A788A433E
:100360005A707047180000488023102110B50824E7
:10037000094A1B03136043780B4343700378A3437C
:1003800080240370054B24061C6003788B430370A4
:1003900080239B03136010BD180400481800004818
:1003A000044B01201A68120402D41B689B081840F1
:1003B0007047C04610040048044B01201A685204DC
:1003C00002D41B68C34018407047C0461004004860
:1003D00000280BD004280BD005280BD00638434248
:1003E0005841054B40421840C01870470348FCE78D
:1003F0000348FAE70348F8E7C0C62D00006CDC02AA
:1004000000366E01001BB7007021034A000113681B
:100410008B43184310607047041002400321034AC5
:1004200013688B43184310607047C04604100240A5
:10043000802303499B040A681A42FCD07047C046D7
:10044000001002408023034A5B0411680B431360D1
:100450007047C04600100240802303499B020A688F
:100460001A42FCD07047C046001002408023034A65
:100470005B0211680B4313607047C04600100240D6
:100480008022044BD2011968114319601968114286
:10049000FCD0704718100240034B10B51868400597
:1004A000400FFFF795FF10BD04100240034A0449B6
:1004B000136800020B40184310607047041002409C
:1004C000FFF8FFFF034A0449136880040B401843F8
:1004D0001060704704100240FFFFC3FF8022044BEE
:1004E000920219681143196019681142FCD07047D3
:1004F000141002408022044BD20219681143196083
:1005000019681142FCD07047141002400122044BBC
:1005100019681143196019681142FCD07047C04630
:10052000141002408022044B120119681143196013
:1005300019681142FCD07047181002400421234B67
:100540001A6813688B431360214A224B02391B68D7
:1005500013688B431360204B1A68002393611F4A72
:10056000126893611E4A126893611E4A11680A68F4
:100570001203120B0A601C4A1C4912681C4A538061
:100580001C4A12680A685204520C0A601A491B4A33
:1005900012680A685204520C0A60194A1949126812
:1005A0000A685204520C0A601749184A12680A680D
:1005B0005204520C0A601649164A12680A6852041C
:1005C000520C0A60144A12681365704784000020B8
:1005D00000380140900000207000002074000020CE
:1005E0008000002004000020880000200800024055
:1005F00000300140080000201C0002400C000020D8
:10060000100000203000024044000240140000208E
:1006100058000240180000208C000020054B10B547
:100620001C68002C05D0236820001B689847A4682C
:10063000F7E710BD48010020037B002B0CD10133EC
:100640000373064B5A684260002A00D090601A6813
:100650005860002A00D118607047C0464801002049
:10066000F0B50125030041180A4E0B488B420FD00C
:1006700008241A78504042102840070090B2002FFA
:1006800001D0724090B2013C002CF4D10133EDE76F
:10069000F0BDC04601A0FFFFFFFF0000074B10B5F3
:1006A0001C68002C05D0236820001B6898476468EC
:1006B000F7E7034B034A1A6010BDC04668000020EC
:1006C000203801405F0A0200084B10B51C68002C5E
:1006D00005D0236820001B6898476468F7E7082165
:1006E000034A138A8B43138210BDC046600000206A
:1006F00000040040084B10B51C68002C05D023688E
:1007000020001B6898476468F7E70821034A138AAA
:100710008B43138210BDC0465C00002000200040C7
:10072000084B10B51C68002C05D0236820001B68FE
:1007300098476468F7E70821034A138A8B431382BA
:1007400010BDC0465800002000440140084B10B5C1
:100750001C68002C05D0236820001B68984764683B
:10076000F7E70821034A138A8B43138210BDC04662
:100770005400002000480140084B10B51C68002CB4
:1007800005D0236820001B6898476468F7E70F23AB
:10079000034A11680B43136010BDC046500000208F
:1007A000040002400F4B70B51C68002C05D0236874
:1007B00020001B6898476468F7E7F0220A4D296813
:1007C0000A432A60094A1468002C05D023682000D7
:1007D0001B6898476468F7E7F0232A681B011343F6
:1007E0002B6070BD4C000020040002404800002037
:1007F000104B70B51C68002C05D0236820001B68C6
:1008000098476468F7E7F0220B4D120229680A4303
:100810002A600A4A1468002C05D0236820001B684F
:1008200098476468F7E7F0232A681B0313432B609B
:1008300070BDC0464400002004000240400000207B
:1008400037B56B46DD1D002307221A492B700B6854
:1008500093431A00012313430B60FFF707FEFFF7D2
:10086000FBFD2C780134E4B22C70002CF9D120006F
:10087000FFF7CAFD2000FFF719FE0420FFF722FE54
:1008800080230D4A5B0211680B431360FFF7DAFD0A
:10089000FFF7CEFD2B780133DBB22B70002BF9D1A3
:1008A0000220FFF7BBFD2B780133DBB22B70002B4E
:1008B000F9D137BD00200240041002404A688B681D
:1008C000002A0CD0002B07D093605A6000234B60A5
:1008D0008B6070470360F8E742609360F6E7002B97
:1008E000F8D103604360F1E710B5037B0100002BF2
:1008F00004D0002303730248FFF7E0FF10BDC04699
:1009000048010020002310B54361FFF7EDFF10BD43
:1009100010B50400024B0360FFF7E6FF200010BD96
:10092000942D000810B50400007BC0B205280DD836
:10093000FFF7EAFB030D1B57233D637B002B05D01C
:1009400021002D48FFF7BAFF0023637310BD2B4B26
:100950001A68120402D41B685B07F7D5236918686C
:10096000FFF702FD03232373F0E7244B1A685204B8
:10097000F4D41B689B07E9D5F0E7E389A28A013329
:100980009BB2E3819A42E1D80123082223732369B1
:100990001B491B680A601878024310201A705A78A5
:1009A00082435A7020230B600023E381CEE7E38962
:1009B000A28A01339BB2E3819A42C7D802238021E5
:1009C0002373104A236909021B68116010211A78E9
:1009D0000A431A705A788A435A702022084B1A60C8
:1009E000E2E7E389A28A01339BB2E3819A42ADD860
:1009F00000232373D9E7C0464801002010040048B3
:100A00001804004818000048084B10B51C68002C5A
:100A100005D0236820001B6898476468F7E7082121
:100A2000034A138A8B43138210BDC0466400002022
:100A3000002C014010B5FFF7E7FF10BD012370B592
:100A4000040003700D0012220021023002F081F92F
:100A5000200014220021143002F07BF92000122221
:100A60000021283002F075F92000122200213A30CE
:100A700002F06FF92000092200214C3002F069F9E0
:100A80002200002321005C32A56513706366114AC1
:100A9000114B603123661368A466002B02D11160EC
:100AA00004E013005A68002AFBD15960002321009A
:100AB00023670A4A0A4B6C31E36613686467002BAC
:100AC00002D1116004E013005A68002AFBD159607A
:100AD000200070BD68000020A02D00084C00002000
:100AE000AC2D0008F0B50500203585B004000E22BD
:100AF000FF21280002F02DF901235B4223630E221F
:100B00000021684602F025F9A36B80221900012616
:100B1000D2009818226B81420FD0013222630A78EA
:100B20000D2A08D84F78A2180132D7776F460A7875
:100B3000BE540231EEE7FF2AFBD1226B3C49520042
:100B40009B18C21AD210002A1BDD1E888E4203D1C8
:100B50005E888E4208D0023398422AD001230020BA
:100B60003434237005B0F0BD9E888E4201D004332A
:100B7000F2E7DE888E4201D00633EDE70833013A12
:100B8000E1E7C21A5210022A0AD0032A03D0012A2E
:100B90000BD00300E0E71988254A9142DCD10233EB
:100BA0001988234A9142D7D102331988204A9142A9
:100BB000D2D103236A461178002936D05178002912
:100BC00008D1511C0E236B4400209942CAD125E064
:100BD0000A00F0E79178002901D1911CF2E7D17861
:100BE000002901D1D11CEDE7013B111D002BEFD1F4
:100BF0000E206844431A022B09D0032B03D0012B8B
:100C000009D00100DEE71379002BDBD0511D0B78F2
:100C1000002BD7D001310B78002BD3D0E0690E2206
:100C2000290002F08DF801209CE71100CAE7C046B8
:100C3000FFFF0000024B18688004C00F7047C046D9
:100C400010040048024B1868C004C00F7047C0462B
:100C500010040048202243680A491B6810B51C781C
:100C60000A60A03A224301241A705A78A2435A70AB
:100C7000802212040A60082259780A435A7000231D
:100C8000037010BD1800004870B5040000780328F8
:100C900000D984E0FFF738FA024B84A2504D2B684C
:100CA0005B055ED4FFF7CEFF002820D080226021B4
:100CB00063684C481B68D20302601A788A431100AB
:100CC00020220A4380211A70474A490211600621F6
:100CD0005A788A43110004220A435A70802208215C
:100CE00002605A788A435A700223237057E02B68B7
:100CF000DB0454D46025402263683A481B680260D4
:100D00001978A9430A4380211A70374A49021160B1
:100D100006215A788A43110004220A435A7080221D
:100D2000082102605A788A435A700123DDE72C4B70
:100D30001D688023DB001D4018D0202263682949EC
:100D40001B680A601878A03A024301201A705A788A
:100D500082435A70802212040A60082259780A439A
:100D60005A700022214B5A620323BEE7FFF76AFF45
:100D7000002814D0202263681A491B680A6018787A
:100D8000A03A024301201A705A7882435A70802296
:100D900012040A60082259780A435A70257070BDFF
:100DA0000F4B1B685B05C8D4FFF744FF0028F6D043
:100DB000202263680B491B680A601878A03A024336
:100DC00001201A705A7882435A70802212040A60F5
:100DD000082259780A435A70042386E7002384E7DF
:100DE000100400481800004818040048002C014076
:100DF000037870B50400012B2BD0002B02D0022BFE
:100E000053D070BD60254022436832491B680A6098
:100E10001878A843024380201A702F4A40021060BD
:100E200006205A7882431000042202435A7020227E
:100E300018780A60A03A024301201A705A78824357
:100E40005A7080220A6008215A788A435A702070AA
:100E5000D7E7FFF7F7FE0028D3D0802163681D4A4B
:100E600009041B6811601D49E068496A01808021FE
:100E70006020C903116019788143080020210143D3
:100E80008020197014494002086006205978814377
:100E90000800042101435970802111605A78783983
:100EA0008A435A7002232370ABE7FFF7C3FE002882
:100EB000A7D08021636809041A68064B19600823CB
:100EC00051780B435370054B22695B6A13800323EF
:100ED000E9E7C0461800004818040048002C01400B
:100EE000202243680A491B6810B51C780A60A03AA2
:100EF000224301241A705A78A2435A7080221204A5
:100F00000A60082259780A435A700023037010BD02
:100F1000180000488021436809041A68044B1960CE
:100F2000082351780B435370002303707047C04669
:100F30001800004810B504000078013803280FD8C5
:100F4000FFF7E2F8020F121EFFF774FE002807D029
:100F50006068FFF7F9F92000FFF7DCFF002323703A
:100F600010BDFFF76FFEF1E70A4B1021625E5B6A6E
:100F70001BB29A42EFDAFFF765FE0028EBD1EFE7EC
:100F8000044B1021625E5B6A1BB29A42E3DDFFF7FD
:100F900051FEF2E7002C0140F0B580250300202629
:100FA0001622875E6D428F4201D19F82F0BD187A72
:100FB000C0B2052807D8FFF7B1F80800B200D30087
:100FC0000A01260144019982F0E70822C948998262
:100FD000C4682243C260426A12B291424FDA60276B
:100FE0004024DA68C44D12682C601678BE4334433E
:100FF0001470466A1C8B361B36B2B14217DB802652
:10100000BE4C76022660062654781778B443023E1A
:101010003443547020242C60A03C3C4301271470BE
:10102000547889B2BC435470C1631E7220E0B14849
:10103000466A361B36B2B1421ADA01260620AF4F95
:1010400061183E60577889B28743BC4602276046E4
:10105000074357708027BF032F605778A5483E434A
:101060007F27567016783E401670C16303211972AF
:10107000802308212B6053788B43537096E79D485B
:10108000426A12B2914200DC90E780246026202759
:10109000DA68994D1268E4032C601478B4433C4339
:1010A0001470466A1C8BA61936B2B14218DC802631
:1010B000924C760226600626547889B2B443260004
:1010C0000424344354708024167864423443012647
:1010D0002F6014705478B4435470C1630221C6E782
:1010E0008448466AA61936B2B142C1DD01260620FF
:1010F000824F091B3E60577889B28743BC4602275E
:1011000060460743577080277F20BF032F605778C2
:1011100037435770177807401770764884E775484B
:101120001A8B446A9982141924B2A14214DC8024D7
:10113000D96864020D6871490C6006246978A1437E
:101140000C00042121436970416A521892B25A81FD
:10115000C26305221A7229E7891A89B2C16325E799
:101160006448426A12B2914218DA63480124844604
:10117000DA68126806601078284310705078A0432F
:10118000802450706046240404605078844608200F
:1011900064462043507000221A7204E7446A1A8B96
:1011A0009982141924B2A14200DAFFE6891A89B2A1
:1011B000C16301200621DA681468504A1060627821
:1011C0008A43110002220A4362701872EEE649480F
:1011D0001E8B446A7518A41BADB224B29982C563F4
:1011E000A14200DAE2E68021DA6849021468434A43
:1011F0001160062162788A43110004220A4362705A
:10120000426A921BA2E73B48426A12B29142ACDCAE
:10121000446A1A8B9982A41A24B2A14200DDC5E661
:10122000511889B2C1630121DA681068334A11602C
:10123000427805318A43110002220A434270032298
:1012400088E72F4A9982106840060CD40A24185F58
:10125000884208DA2748446A188B001900B2814294
:1012600001DA5981A2E61068400606D4214D188B98
:101270006C6A041924B2A1421EDC106840062CD40A
:101280001268520600D491E61A4C1A8B606A801AD2
:1012900000B2814200DB89E60125D8685118066852
:1012A000164889B2056070780535A843050002200C
:1012B00028437070E163C2E701240626DA68091A40
:1012C00017680E4A89B214607A78B2431600022277
:1012D00032437A70E9631C7268E60A24185F884218
:1012E000CEDD04481C8B406A001B00B28142B8DC92
:1012F000C6E7C046002C014018000048180400480A
:101300001000004810B5037B0400002B05D00369D2
:101310001868FFF729F80323237310BD70B502681E
:101320000400137A002B15D02021D3680C481B68C9
:1013300001601D78A0392943012519705978A94306
:1013400059708021090401600821587801435970BF
:10135000002313726068FFF7D5FF0023A37370BDED
:101360001800004810B504004068FEF7EDFF2000AB
:10137000FFF7D0FDA068FFF7C5FF0023237010BD65
:10138000F0B501261021CA4D42682B68D71CFA7FA0
:10139000DB0B33408A431B011343FB772B68FA7F37
:1013A0009B0B491833408A435B01134385B0FB779D
:1013B0000400FFF73FFC0300F87F3340B0431843BD
:1013C000F8776768FFF73EFC02210337304043009F
:1013D000F87F0822884318436368296801938023B3
:1013E000DB001940F8770F007B1E9F41019BFF0037
:1013F0000333D87F90433843D8772868DF7FC00A0B
:101400003040043A974380003843D8772868DF7F1C
:10141000800830403C32974380013843D8772868B1
:101420007F27F0400640D87FF60138400643DE773C
:10143000A04E002901D000237362736A019A012033
:1014400013841300117C20220633DF7FC90801407A
:101450009743490139432700D977A6373A781100D5
:10146000014002928A0103924022D97F9143039A5C
:1014700011430200D97790490968C9098A43D2000B
:1014800003920822D97F9143039A1143D977E268E6
:101490001178002294460A0703D4C906C90F4840B0
:1014A0008446624611011022D87F90430143D977C8
:1014B00020780138032826D8FEF730FE04004F00BC
:1014C000CE001101029B002B0DD120005C30FFF7F4
:1014D000C1FB02230721237063680533DA7F8A4347
:1014E000110001220DE02B681B040ED420005C309B
:1014F000FFF7B0FB05220720636822709B18D97F95
:1015000081430A43DA7705B0F0BD2B681B04FAD596
:1015100026005C363000FFF7B7FB3378032B09D188
:10152000002340213B70636830000633DA7F8A4332
:10153000DA77CCE7042B01D13000D9E72B681B0503
:10154000E1D422000123A532137040223B7063686E
:101550000633D97F0A43DA77EEE7029A002A0BD0E6
:1015600001230721019A23700532D37F8B43190091
:1015700003230B43D377C6E72A6812050DD4210055
:101580000122A5310A703A70D97F3F320A43DA77D7
:1015900020006830FFF7C2FEACE72B685B07F7D48A
:1015A0002B689B07F4D4FFF74DFB002806D0A268F8
:1015B000736A1821525E1BB29A4221D1FFF73AFB9F
:1015C000002828D163680A229B5E002B31D02500B9
:1015D0006835AB7B012B37D0022B00D093E7E36E4D
:1015E0001A7B002A03D01B7B032B00D08BE7FEF76E
:1015F000D7FE00282DD1FEF7DFFE002829D182E793
:1016000020006830FFF78AFEA3681B8B7362726A42
:1016100063681A8477E7A268736A1A21525E1BB264
:101620009A42CFD020006830FFF778FEA3685B8B2A
:10163000ECE7736A1BB2002BC9D12B685B05C6D4DB
:1016400001233B7023705EE7A36E1B7A002B00D052
:1016500059E70023AB7356E72B681B0404D4200022
:101660007830FFF73DFC45E72B681B0400D44AE7C0
:10167000260078363000FFF7BBFB3378032B1DD1F3
:10168000A26863681820115E300099831A21525EA7
:10169000DA83FFF725FC0223072123706368A73450
:1016A0005A1DD37F8B4306390B43D37721702AE72A
:1016B00010040048002C0140100000482B681B0556
:1016C00000D520E722000123A532137040223B7091
:1016D000636830000633D97F0A43DA77C1E7802395
:1016E0002A681B011A4204D12200A5321278002A6E
:1016F0000DD12A681A420FD02B681B0500D402E7CF
:1017000020004830FFF716FCA53400239AE720009C
:101710004830FFF70FFCF6E62600A5363378002B9D
:10172000EAD1200001254830FFF71CFE3570260065
:101730008C363D703000FFF7E5F8FA23DB003361AB
:101740003000FEF779FF402063683A78591D063370
:101750002A40DD7F920185431543DD770523CA7F4B
:101760003938824323701343CB77CCE60122044BF4
:1017700019689143196019681142FCD17047C0463D
:101780003000024070B58024074B24011B682342BF
:1017900009D08568FFF7EAFF044B5C351A681443EB
:1017A0001C6001232B7070BD1C38014020380140A3
:1017B0000122044B19689143196019681142FCD148
:1017C0007047C0461C00024010B520240A4B1B681D
:1017D00023420FD0FFF7ECFFFFF7C8FFFF22074BB4
:1017E0001A600123064A11680B431360054B1A68FF
:1017F00014431C6010BDC04600000240340002408B
:10180000300002400400024010B5FEF773FE0320D2
:1018100001210E4B1A6882431A601A680A431A6043
:101820000B4B1A688A431A601A681A60094B1A68C7
:1018300082431A601A681A60074B1A688A431A6052
:101840001A681A60054B1A681A6010BD0004004837
:1018500004040048080400480C0400482004004820
:1018600010B5FEF73BFE902380218020DB051A682F
:101870000E4CC90122401A601A68114319600C4BC2
:101880001968814319601A681A600A4B1A68224065
:101890001A601A681A60084B1A6882431A601A683C
:1018A0001A60064B1A681A6010BDC046FF3FFFFF62
:1018B00004000048080000480C00004820000048D0
:1018C00010B5FEF70BFE902380214020DB051A683F
:1018D0000E4C490122401A601A68114319600C4BE2
:1018E0001968814319601A681A600A4B1A68224005
:1018F0001A601A681A60084B1A6882431A601A68DC
:101900001A60064B1A681A6010BDC046FFCFFFFF71
:1019100004000048080000480C000048200000486F
:1019200010B5FEF7DBFD902380212020DB051A682F
:101930000E4CC90022401A601A68114319600C4B02
:101940001968814319601A681A600A4B1A682240A4
:101950001A601A681A60084B1A6882431A601A687B
:101960001A60064B1A681A6010BDC046FFF3FFFFED
:1019700004000048080000480C000048200000480F
:1019800010B5FEF7B7FDC0200F4B1A6882431A60EE
:10199000402219680A4308211A600C4B1A688A43CE
:1019A0001A601A681A600A4B1A6882431A601A6829
:1019B0001A60084B1A688A431A601A681A60064B44
:1019C0001A681A6010BDC0460004004804040048AC
:1019D000080400480C0400482004004810B5FEF735
:1019E0007DFD9022D20513680F489B009B08136071
:1019F00080231168DB050B4313600C4B1968014011
:101A000019601A681A600A4A13689B009B081360E1
:101A100013681360074B1A6802401A601A681A604C
:101A2000054B5A685A6010BDFF7FFFFF0400004855
:101A3000080000480C0000482000004810B5FEF7E0
:101A400059FD802120200F4B0F4C1A68C9002240FD
:101A50001A601A68114319600C4B196881431960A8
:101A60001A681A600A4B1A6822401A601A681A60CB
:101A7000084B1A6882431A601A681A60064B1A6883
:101A80001A6010BD00040048FFF3FFFF0404004883
:101A9000080400480C0400482004004810B5FEF774
:101AA00029FD802110200F4B0F4C1A68490022405D
:101AB0001A601A68114319600C4B19688143196048
:101AC0001A681A600A4B1A6822401A601A681A606B
:101AD000084B1A6882431A601A681A60064B1A6823
:101AE0001A6010BD00040048FFFCFFFF040400481A
:101AF000080400480C04004820040048437B002BE5
:101B00000CD1074B5A684260002A00D090601A68D6
:101B10005860002A00D11860012343737047C04603
:101B2000480100201A4B10B51A680400120419D499
:101B30001B685B0716D4037B002B13D108220369B3
:101B400014491B680A601878024310201A705A78EA
:101B500082435A7020230B601F3B23732000FFF742
:101B6000CDFF10BD237B022B05D123691868FEF73A
:101B7000FBFB042309E0237B042BFAD0237B052BFA
:101B8000F7D0237BDBB2032BEBD12373E9E7C0460D
:101B900010040048180400481B4B10B51A680400D4
:101BA00052041BD402211B680B4217D1037B002B6C
:101BB00014D103698020154A00021B6810601020B0
:101BC0001A7802431A705A7882435A702022104BB6
:101BD00020001A602173FFF791FF10BD237B012BBA
:101BE00005D123691868FEF7BFFB052309E0237BB5
:101BF000042BFAD0237B052BF7D0237BDBB2032BFE
:101C0000EBD12373E9E7C0461004004818000048F0
:101C100018040048F8B50400082910D80800FEF799
:101C20007DFA09000F0015001D00290053005B001C
:101C300062006702626853881383A2681382F8BD4A
:101C4000626893885383A2689374F8E76368DB88BB
:101C5000D03B5A425341A24A1370F0E7A04B1A7886
:101C6000002A04D061680A89CA82A168CA81012257
:101C70001A70E4E72378022BE1D126006368683606
:101C80000A255D5FB37BB581002B06D0012BD6D131
:101C90002900A06EFFF780F9D1E7E36E1A7B002AD6
:101CA00002D01B7B032BCAD1FEF77AFB002806D09B
:101CB0002900A06EFFF770F90123B373BFE7FEF7A9
:101CC0007BFB0028F4D1BAE762689389D384A268C9
:101CD0001BB2A3859382B2E76368A21DDB89D38719
:101CE000A268D382ABE72378002B0CD163681A7CFF
:101CF0001207A4D501227B4922709A8C11407A4A9E
:101D00000A439A849BE7012B2DD163681D7C2B0726
:101D1000DE0F002B15DB20005C30FEF79BFF072059
:101D200062682670511DCB7F06328343CB77937A4E
:101D30001B07DB0FD17F19305B0181430B43D37746
:101D40007DE707263540022D00D078E720005C3083
:101D5000FEF780FF0423237063680533DA7FB24304
:101D60001543DD776BE7032B16D163681B7C1B07DC
:101D7000DD0F002B00DA62E720007830FFF7B0F8C3
:101D8000072062682570511DCB7F06328343CB77D5
:101D9000937A1B07DB0FCDE7022B00D091E063683D
:101DA0001B7C1A07D50F002A04DB20006830FFF7E0
:101DB000B5FAE5E7DA0601D49B0603D520006830C2
:101DC000FFF7ACFA63685A7C1307DB0F520742D562
:101DD000002B06D1230068339B7B002B27D0022BDE
:101DE00031D06368E56E5B7CDB064DD5FEF7E4FA27
:101DF000002809D010212B691A683C4B19608023F8
:101E000051785B420B435370072663681D7C354055
:101E1000022D47D120006830FFF780FA0423626862
:101E200023700532D37FB3431D43D57707E7FEF711
:101E3000B7FA002802D1E06EFFF774FE23000222F9
:101E400068339A73CDE7FEF7ABFA0028C9D1E06E8C
:101E5000FFF768FEC5E7002BC3D0230068339B7BE8
:101E6000002B09D0022BBCD1FEF7A6FA0028B8D16E
:101E7000E06EFFF791FEB4E7FEF79EFA0028DDD191
:101E8000E06EFFF789FED9E7FEF796FA0028BBD08F
:101E900080212B6949031A68144B19607F215378FC
:101EA0000B40B0E7042D00D0C9E62300A7331B7810
:101EB000002B00D0C3E620006830FFF72FFA032381
:101EC00049E7042B00D0F1E063681B7C1A07D50FAB
:101ED000002A0DDB20004830FFF744FA50E7C046E7
:101EE0006C000020F8DFFFFF03200000180400480A
:101EF000DB0603D520004830FFF70CF863681B7C35
:101F00009B0602D5206DFFF7FDF96268517C0B0737
:101F1000DB0F490758D5002B05D1137C9B0602D453
:101F2000206DFFF7FFFD6368E06C1B7C5B0654D4FB
:101F30008021A54A890303681160012259780A4368
:101F40007F215A701A780A401A706168E36C0D7C20
:101F50001B685A787F2D43D880259C486D02056008
:101F60000625AA43150004222A435A704D7CAA076D
:101F7000D20FE80764D5002A09D10A7CD20606D41C
:101F8000220048321578002D31D0022D47D04D7CEB
:101F90005A78E80600D482E010258C48056080203D
:101FA0004042024307265A700D7C3540012D00D077
:101FB00045E6874B1B681B0500D440E620004830EF
:101FC000FFF7D0F90223C6E6002BACD0137C9B06AA
:101FD000A9D4206DFFF7E0FDA5E7FEF7B5F9B4E75A
:101FE00001257A4805600535AA43043DBCE7784DD4
:101FF0002D68A804CBD480256026734FED033D6087
:102000001D78B5432E00202535431D7080253D6089
:1020100008265D78B5435D7001251570B7E7802609
:10202000694D36042E6080266027F6032E601E78E8
:10203000BE43370020263E431E7080262E60E7E711
:10204000002AA4D00A7CD206A1D4250048352A78DB
:10205000002A0FD0012A9AD180225B4E1204602000
:10206000326040221F78326087433A431A708022E0
:1020700032600DE0564A1268D20488D460204022B3
:102080001E78514F86433A6032431A7080223A607C
:1020900008265A78B2435A7002222A7077E78025C0
:1020A0004A486D0305607F2002407BE7052B00D086
:1020B000C5E507256268137C2B40022B0CD121005B
:1020C0008C3148690969884206D30421501D21706A
:1020D000C17FA9430B43C377137C1B07D90F002B88
:1020E00000DAACE52170938C3A490B409384A6E565
:1020F0002178042900D0A2E56368DA7C50062ED549
:10210000260048363278002A00D098E580275D8A7C
:10211000314BAD045B6AAD0C5B1B3382E06C2B4B27
:102120007F0202681F6006275378BB430B4353703E
:10213000FEF70AF9002D0FD0E36C60241A684023E3
:1021400011782148A14303600B43137080230821B9
:10215000036053788B435370032333706FE5D209C8
:1021600000D16CE5260048363278002A00D066E5BA
:1021700080275D8A184BAD045B6AAD0CEB18338287
:10218000E06C124B7F0202681F6006275378BB4346
:102190000B435370FEF7D8F8002D12D08022602137
:1021A000E36C09481B68D20302601A788A43110065
:1021B00020220A431A708022082102605A788A433A
:1021C0005A700423C9E7C0461800004818040048A4
:1021D00010040048F8DFFFFF002C014070B5FEF747
:1021E0007DF99023DB051A68104D114C2A401A60C6
:1021F0008022196892020A431A600E4B1868204028
:1022000018601A681A600C4B1968294019601A681E
:102210001A600A4B1A6822401A601A681A60022370
:10222000074A51680B43536070BDC046FFFFFCFF77
:10223000FFFEFFFF04000048080000480C000048B3
:102240002000004870B5FEF749F99023DB051A68B5
:10225000104D114C2A401A608022196812030A435B
:102260001A600E4B1868204018601A681A600C4BF0
:102270001968294019601A681A600A4B1A682240C6
:102280001A601A681A602023074A51680B4353608A
:1022900070BDC046FFFFF3FFFFFDFFFF04000048D5
:1022A000080000480C0000482000004810B5FEF768
:1022B00015F99023C020DB051A6882431A6080223A
:1022C00019680A4308211A600C4B1A688A431A607D
:1022D0001A681A600A4B1A6882431A601A681A60F0
:1022E000084B1A688A431A601A681A608023064AE3
:1022F0005B0111680B43136010BDC0460400004829
:10230000080000480C0000482000004810B5FEF707
:10231000E5F890233020DB051A6882431A602022FA
:1023200019680A4304211A600C4B1A688A431A6020
:102330001A681A600A4B1A6882431A601A681A608F
:10234000084B1A688A431A601A681A608023064A82
:102350005B0011680B43136010BDC04604000048C9
:10236000080000480C0000482000004810B5FEF7A7
:10237000B5F890230C20DB051A6882431A60082206
:1023800019680A4302211A600B4B1A688A431A60C3
:102390001A681A60094B1A6882431A601A681A6030
:1023A000074B1A688A431A601A681A601023054A94
:1023B00011680B43136010BD04000048080000487A
:1023C0000C0000482000004870B50E000500FFF723
:1023D0006DFFFFF79BFFFFF7C9FFFEF751F8346869
:1023E000FEF75AF82100FDF7A3FE3B4B3B4C18606B
:1023F0003379012B00D06BE080232268DB0013438C
:1024000023607379002B5FD0802322689B001343E5
:10241000334A2360136833491940B37901261B03FB
:102420000B431360042321680B43236008232168B6
:102430000B43402123602C4B186801431960802115
:10244000186801432A201960284908608021106813
:102450000904014311608022196852000A431A607E
:1024600080221968D2010A431A602368334323602B
:10247000FEF74CF81E4B1F4A1D601F4BA0211A602F
:10248000FF221E4B1A6000221D4B1A60196019684A
:102490000E431E601B4B1C491D601C4B19601C4BDE
:1024A0001A6090321A6080222168D2040A432260A6
:1024B0008022184912050A600222186802431A6035
:1024C0008023DB000B6070BD2368134A13409FE735
:1024D0002368124AFAE7C0460C3801400038014030
:1024E00004380140FFCFFFFF083801401438014095
:1024F0003C000240243801403800024034000240D1
:1025000030000240280002402838014024000240E8
:102510001C00024000E100E0FFFDFFFFFFFBFFFFAA
:1025200038230A7813B51340082B23D0102B24D05E
:10253000182B25D0202B25D0282B26D0302B26D089
:10254000383B59424B4113495B420B40962189016C
:102550005B1800936B46D40791075207C90FD20F3F
:1025600052005971E40F6946806D1C719A71FFF732
:102570002BFF13BDE1239B01EBE79623DB01E8E78B
:10258000E123FBE796231B02E3E7E123FBE7962326
:102590005B02DEE7809C0100F0B50024B7B00CAB15
:1025A0001C70DA4BDA4D0D9324330F930E95FFF721
:1025B00015FEFFF747FEFDF7B5FF8020D54B400025
:1025C0001A6A702602431A62072299689143063AF2
:1025D00011439960D969B1430E001021314303269C
:1025E000D9619969B143114399619969CA4E3140E2
:1025F00008439861F020D9698143080050210143C4
:10260000D9615C6219880A431A801422AB5EC34AFE
:10261000129411920CAA14775477D4830FAA1492AF
:1026200010AA15920CAA93858022BD4BD201169454
:102630001A60BC4A1368A34203D111AB136005E0D2
:1026400013005A68002AFBD111AA5A600024B64B25
:10265000E98A18931BAB1C703D230CAA9B181C70B5
:1026600013000633D9871EAB1C7010AB2193259342
:1026700028932C932B0018332D932B001A332E9371
:1026800032AB18A91C70A94B2091279129A90C8065
:10269000083376212F93802323A8047011A8269055
:1026A0000CA809185B020C70D4872AA90FAA0C7019
:1026B0001C921F9224922B9219941A943094319464
:1026C000339435933494FFF79FF8FFF7C9F8FFF779
:1026D000F7F8FFF725F9FFF753F9FFF77FF9FFF751
:1026E000ADF9FFF7DBF9FDF729FF914B87481B6830
:1026F000FF269C6107238382EB890134C3822B8AE6
:102700000383AB7C037043831823EA5E82831A2120
:102710006B5EC383A98A0286C1843F21021DD387D1
:102720000300418729005033824A1C701031831DF9
:1027300044858687DA87FFF7F3FE0A9608940CA88B
:10274000FEF71EFE714A13005C331978C9B2079177
:10275000002900D148E100211970774B0A981B68C5
:102760009BB2C61A936D12781D78AA4259D10D00FA
:102770000223033B2F0002950195072B5AD818001E
:10278000FDF7CCFC5D0074008D00B3000B000E0162
:102790001A01510006260623F1E75C4B7C009A6D76
:1027A00007990992073294461A1905920022049259
:1027B0003A004C329B180B936B46019A1B8A9A4243
:1027C00000D8CCE0049A0B9B9B5C059A039363466C
:1027D00018785B7800020343108D1BB20200059845
:1027E000408F06900398002800D1A9E014B2200081
:1027F000DA17E40F83425441069A214012B29A42FA
:1028000004DA069A50424241D3B20393039B194023
:10281000049B0133049302239C44059B02330593DC
:10282000CAE7002DA4D0FEF7A1FF0A9A424B1A6016
:10283000424AD5E00023072EA1D807339FE7334B48
:10284000B11E9C6DC9B22000A419FDF709FFA31E9B
:1028500019780A23C2B2033B914290D1013C001285
:102860002278C0B282428AD1063B88E7274B9B6D13
:102870009A78DF78120217431A79597912021143B4
:102880007A18013A019195B25A780223032A00D1AD
:1028900075E70133102A00D171E7089B32E00A2363
:1028A000033B082E00D06AE7092D2AD8019B17495F
:1028B0005B009C4662468B6D9A700022019B93429E
:1028C00010DDBB1808335B00CB189C88886D560060
:1028D00080192412C470886D9B8886190132337167
:1028E000D2B2EBE76646033655E7019B5A000A234E
:1028F0000932033BB24200D041E7033B082D00D828
:102900003DE702230293052339E7C046D0000020AB
:1029100094000020002C0140FFFCFFFFB82D0008B0
:1029200000E100E064000020C42D0008C82D00086C
:102930001C000020E02E0000340002403000024065
:1029400003989BB29342404101400698079A834204
:1029500003D9020050424241D2B2114058E703234A
:102960000029CFD00023214C019A93420DDA099817
:1029700059004118C879FA18097A52000002A218C1
:10298000084301335080DBB2EEE7BD4200D201E7DD
:102990007C1C3900A4B20CA8FFF73CF92700F4E72F
:1029A0008023124A5B42916D0326487803434B70A3
:1029B000936D029A9A70EEE60C4CF1B2A56D280068
:1029C000FDF74EFEA855A36D00129B195870FEF737
:1029D000CDFEFEF7EDFE064AB31C9BB21360054A1E
:1029E000136808990B43136030BFA8E6D00000209D
:1029F000200002401C000240044B1A69120603D555
:102A0000034A5A60034A5A607047C0460020024099
:102A100023016745AB89EFCD70B5464D040028789A
:102A2000042818D8FDF770FB031D39586D002300EA
:102A3000343319780323002911D13F4AE069137810
:102A4000E4180134C65CE07F864207D10133DBB273
:102A50000E2B01D0137070BD1170FCE701232B7099
:102A6000F9E7364EF368DB07F5D433691B06F2D578
:102A7000FFF7C2FF01233269134333612E4BA06B72
:102A80001978E3695A5C2E4B1A701B78226B1B0273
:102A90000B43520013520223E1E7284BDA689206F7
:102AA000D9D52022D9680A43DA60802219690A43FD
:102AB0001A61234B1A78204B1B78E3180133DA771D
:102AC0008022236B920001332363934202D90123B6
:102AD000343423700023C2E7184CE368DB07BAD410
:102AE00023691B06B7D5FFF787FF0223226913432B
:102AF0002361144B63614023226913432361042340
:102B0000ADE70E4BDA689206A5D52022D9680026DB
:102B10000A43DA608022196920000A431A612300FF
:102B200034331E7020300E22FF2100F012F926638C
:102B30002E7090E73E0000203C0000200020024064
:102B40003D000020007C0008414B424AF0B51A606D
:102B50009022414BD2051A60404B414A41491A60CC
:102B6000414B424A01241A60414B424A99B01A60D3
:102B7000414B424A1A60424B424A1A60424B434A16
:102B80001A60434B434A1A600023434A1360536060
:102B9000424A516004219360106801431160022190
:102BA00010680143116011683D48214311603D4A9E
:102BB000C381038242613C4A4360826102000E325B
:102BC000C261012252420263020034328360037305
:102BD0001370364B364F83638023364A8474076004
:102BE00011690B431361FDF77DFF051E21D101AC77
:102BF0000E223149200000F0A3F805A90B0045CCB6
:102C000045C3322622886E441A8030000E2200F01E
:102C100097F8012309AC5B42236316AB1D70234B6D
:102C20006560A560257320000997E661A363FDF741
:102C30006FFE1B4C2000FDF7FFFC204A20492000BE
:102C400000F044F81F492048FDF7F8FE19B0F0BD28
:102C5000840000200010024070000020740000205A
:102C6000000400487FBB00007800002000080048F6
:102C70007C000020000C0048800000200014004868
:102C800090000020003801408C000020002C014002
:102C900088000020003001404801002010E000E0E2
:102CA000940000206400B80B00C00040007C0008C5
:102CB000942D0008002002407C2D00080000002018
:102CC0001109000850010020D00000200B0010B5B1
:102CD0000100180000F002F810BD000010B504005B
:102CE00004481300002804D00A000220210000E05C
:102CF00000BF10BD0000000070B500260C4D0D4C4B
:102D0000641BA410A64209D1002600F02BF80A4D3E
:102D10000A4C641BA410A64205D170BDB300EB5849
:102D200098470136EEE7B300EB5898470136F2E7D3
:102D3000D42D0008D42D0008D42D0008DC2D000867
:102D4000002310B59A4200D110BDCC5CC4540133AD
:102D5000F8E703001218934200D17047197001334D
:102D6000F9E70000F8B5C046F8BC08BC9E467047BD
:0C2D7000F8B5C046F8BC08BC9E46704791
:102D7C000000000001006400B80B00C0004000001F
:102D8C000000000000000000192A000800000000EC
:102D9C000000000085170008000000000000000083
:102DAC00C91700080000000000000000A502000880
:102DBC0000000000000000002509000800000000D1
:082DCC00000000009B0200085A
:082DD400E9000008492B00088A
:042DDC00C10000082A
:102DE0000000000000000240080002401C000240F9
:102DF00030000240440002405800024000000048F9
:0400000508000249A4
:00000001FF
