:020000040800F2
:10000000001000205D020008AD020008AD020008EB
:1000100000000000000000000000000000000000E0
:10002000000000000000000000000000AD02000819
:100030000000000000000000AD02000835050008C7
:10004000AD02000800000000AD020008AD0200088B
:10005000AD020008AD020008AD020008AD020008C4
:100060000000000091060008BD060008090700080E
:10007000AD020008AD0200086D0800080000000095
:10008000E105000800000000000000000D06000867
:10009000000000003906000865060008AD020008EF
:1000A00000000000AD02000800000000B5050008D7
:1000B0000000000000000000000000000000000040
:1000C00010B5064C2378002B07D1054B002B02D02E
:1000D000044800E000BF0123237010BD2000002071
:1000E00000000000A42A0008044B10B5002B03D028
:1000F0000349044800E000BF10BDC04600000000F6
:1001000024000020A42A000802B4714649084900CE
:10011000095C49008E4402BC7047C04603B4714676
:10012000490840004900095E49008E4403BC7047FD
:1001300003B47146490840004900095A49008E44F9
:1001400003BC7047002243088B4274D303098B42DF
:100150005FD3030A8B4244D3030B8B4228D3030C97
:100160008B420DD3FF22090212BA030C8B4202D339
:100170001212090265D0030B8B4219D300E0090A61
:10018000C30B8B4201D3CB03C01A5241830B8B426A
:1001900001D38B03C01A5241430B8B4201D34B0353
:1001A000C01A5241030B8B4201D30B03C01A5241B8
:1001B000C30A8B4201D3CB02C01A5241830A8B423D
:1001C00001D38B02C01A5241430A8B4201D34B0226
:1001D000C01A5241030A8B4201D30B02C01A52418A
:1001E000CDD2C3098B4201D3CB01C01A524183093E
:1001F0008B4201D38B01C01A524143098B4201D378
:100200004B01C01A524103098B4201D30B01C01AA2
:100210005241C3088B4201D3CB00C01A524183081C
:100220008B4201D38B00C01A524143088B4201D349
:100230004B00C01A5241411A00D2014652411046A9
:100240007047FFE701B5002000F006F802BDC04688
:100250000029F7D076E770477047C0460D488546BD
:100260000D480E490E4A002302E0D458C45004330E
:10027000C4188C42F9D30B4A0B4C002301E01360E5
:100280000432A242FBD300F067FA02F0D5FB01F082
:10029000C5FFFEE700100020000000202000002025
:1002A000202B00082000002058020020FEE74369B0
:1002B0000133436170470000044B01201A681204A7
:1002C00002D41B689B0818407047C04610040048C1
:1002D000044B01201A68520402D41B68C340184022
:1002E0007047C0461004004800280BD004280BD0EB
:1002F00005280BD0063843425841054B4042184070
:10030000C01870470348FCE70348FAE70348F8E7DA
:10031000C0C62D00006CDC0200366E01001BB70069
:100320007021034A000113688B4318431060704723
:10033000041002400321034A13688B4318431060E2
:100340007047C04604100240802303499B040A689A
:100350001A42FCD07047C046001002408023034A76
:100360005B0411680B4313607047C04600100240E5
:10037000802303499B020A681A42FCD07047C0469A
:10038000001002408023034A5B0211680B43136094
:100390007047C046001002408022044BD201196809
:1003A0001143196019681142FCD0704718100240BF
:1003B000034B10B518684005400FFFF795FF10BDBF
:1003C00004100240034A0449136800020B4018431A
:1003D0001060704704100240FFF8FFFF034A044911
:1003E000136880040B4018431060704704100240EB
:1003F000FFFFC3FF8022044B92021968114319606A
:1004000019681142FCD07047141002408022044B3E
:10041000D20219681143196019681142FCD0704763
:10042000141002400122044B196811431960196825
:100430001142FCD07047C046141002408022044B89
:10044000120119681143196019681142FCD07047F4
:10045000181002400421234B1A6813688B43136061
:10046000214A224B02391B6813688B431360204BCF
:100470001A68002393611F4A126893611E4A12682A
:1004800093611E4A11680A681203120B0A601C4A23
:100490001C4912681C4A53801C4A12680A6852049C
:1004A000520C0A601A491B4A12680A685204520C1C
:1004B0000A60194A194912680A685204520C0A6003
:1004C0001749184A12680A685204520C0A60164901
:1004D000164A12680A685204520C0A60144A1268DA
:1004E0001365704784000020003801409000002010
:1004F0007000002074000020800000200400002014
:100500008800002008000240003001400800002060
:100510001C0002400C0000201000002030000240AF
:10052000440002401400002058000240180000203F
:100530008C000020054B10B51C68002C05D02368EA
:1005400020001B689847A468F7E710BD5001002001
:10055000037B002B0CD101330373064B5A684260B6
:10056000002A00D090601A685860002A00D11860F4
:100570007047C04650010020F0B501250300411826
:100580000A4E0B488B420FD008241A785040421074
:100590002840070090B2002F01D0724090B2013C79
:1005A000002CF4D10133EDE7F0BDC04601A0FFFF00
:1005B000FFFF0000074B10B51C68002C05D0236816
:1005C00020001B6898476468F7E7034B034A1A60EA
:1005D00010BDC04668000020203801405F0A0200BC
:1005E000084B10B51C68002C05D0236820001B6840
:1005F00098476468F7E70821034A138A8B431382FC
:1006000010BDC0466000002000040040084B10B53B
:100610001C68002C05D0236820001B68984764687C
:10062000F7E70821034A138A8B43138210BDC046A3
:100630005C00002000200040084B10B51C68002C16
:1006400005D0236820001B6898476468F7E70821F5
:10065000034A138A8B43138210BDC0465800002002
:1006600000440140084B10B51C68002C05D02368DD
:1006700020001B6898476468F7E70821034A138A3B
:100680008B43138210BDC046540000200048014037
:10069000084B10B51C68002C05D0236820001B688F
:1006A00098476468F7E70F23034A11680B43136008
:1006B00010BDC04650000020040002400F4B70B532
:1006C0001C68002C05D0236820001B6898476468CC
:1006D000F7E7F0220A4D29680A432A60094A14689C
:1006E000002C05D0236820001B6898476468F7E752
:1006F000F0232A681B0113432B6070BD4C000020BF
:100700000400024048000020104B70B51C68002C0B
:1007100005D0236820001B6898476468F7E7F0223B
:100720000B4D120229680A432A600A4A1468002CF9
:1007300005D0236820001B6898476468F7E7F0231A
:100740002A681B0313432B6070BDC0464400002081
:10075000040002404000002037B56B46DD1D002339
:1007600007221A492B700B6893431A000123134385
:100770000B60FFF707FEFFF7FBFD2C780134E4B2B6
:100780002C70002CF9D12000FFF7CAFD2000FFF7E4
:1007900019FE0420FFF722FE80230D4A5B02116838
:1007A0000B431360FFF7DAFDFFF7CEFD2B78013323
:1007B000DBB22B70002BF9D10220FFF7BBFD2B78A9
:1007C0000133DBB22B70002BF9D137BD0020024082
:1007D000041002404A688B68002A0DD0002B08D014
:1007E00093608B685A6000234B608B607047036096
:1007F000F8E742609360F6E7002BF8D103604360AE
:10080000F1E7000010B5037B0100002B04D00023AA
:1008100003730248FFF7DEFF10BDC0465001002001
:10082000002310B54361FFF7EDFF10BD10B50400C4
:10083000024B0360FFF7E6FF200010BDD42A00083A
:10084000084B10B51C68002C05D0236820001B68DD
:1008500098476468F7E70821034A138A8B43138299
:1008600010BDC04664000020002C014010B5FFF709
:10087000E7FF10BD012370B5040003700D001422C2
:100880000021023002F005F9200014220021163068
:1008900002F0FFF82000142200212A3002F0F9F8BB
:1008A0002000142200213E3002F0F3F820000A223A
:1008B0000021523002F0EDF82200002321006032C6
:1008C000E5651370A366114A114B643163661368C2
:1008D000E466002B02D1116004E013005A68002A7C
:1008E000FBD159600023210063670A4A0A4B70312B
:1008F00023671368A467002B02D1116004E0130082
:100900005A68002AFBD15960200070BD68000020A1
:10091000E02A00084C000020EC2A0008F0B5050091
:10092000243585B004001022FF21280002F0B1F820
:1009300001235B42636310220021684602F0A9F89C
:10094000E36B802219000126D2009818626B88425E
:100950000FD0013262630A780F2A08D84F78A218A4
:100960000532D7776F460A78BE540231EEE7FF2A88
:10097000FBD1626B2E4952009B18C21AD210002A7A
:100980001BDD1E888E4203D15E888E4208D0023362
:100990006A4698421ED0012338342370002644E072
:1009A0009E888E4201D00433F2E7DE888E4201D069
:1009B0000633EDE70833013AE1E7C21A5210022A82
:1009C00018D0032A11D0012A1AD11988184A914245
:1009D000DED16A461678002E27D05378002B11D12D
:1009E000013204AB9A42D9D11AE01988104A9142D7
:1009F000CED1023319880E4A9142C9D10233E4E7BD
:100A00000300C5E79378002B01D10232E9E7D378E0
:100A1000002B01D10332E4E7043204AB9A42D9D16E
:100A2000206A1022290002F02BF8300005B0F0BD3A
:100A3000FFFF0000024B18688004C00F7047C046DB
:100A400010040048024B1868C004C00F7047C0462D
:100A5000100400482022064B1A600368A03A197857
:100A60000A4301211A705A788A435A707047C04667
:100A7000180000488022044B12041A600823026800
:100A800051780B43537070471800004810B50400AC
:100A90004068FFF7DFFF6068FFF7ECFF002323707B
:100AA00010BD10B504004068FFF7D4FF6068FFF781
:100AB000E1FF0023237010BD10B504000078013859
:100AC00003280FD8FFF720FB020F121EFFF7B2FF1B
:100AD000002807D06068FFF7BDFF6068FFF7CAFF16
:100AE0000023237010BDFFF7ADFFF1E70A4B102183
:100AF000625E5B6A1BB29A42EFDAFFF7A3FF00283F
:100B0000EBD1EFE7044B1021625E5B6A1BB29A42A5
:100B1000E3DDFFF78FFFF2E7002C01408022054B59
:100B2000D2031A602023026811780B4340218B43C3
:100B300013707047180000488022054B52021A605B
:100B40000423026851780B4302218B435370704792
:100B50001804004870B50400007A013804280FD842
:100B60000F4DFFF7D1FA031103110E001422A35EFB
:100B7000E06863819BB2EB6305232372FFF7DCFF20
:100B800070BDE068FFF766FFE068FFF773FFA38AB8
:100B90000822E38200232372EB689343EB60EFE7C4
:100BA000002C014080220821034B1A600268537810
:100BB0008B4353707047C046180000484023044AD6
:100BC0001360026811780B4320218B431370704728
:100BD0001800004870B504000078032841D8FFF7DA
:100BE00093FA02244151284D2B681B0529D4FFF7A5
:100BF00029FF00280BD06068FFF790FF6068FFF7BF
:100C00009BFF6068FFF7CEFF0223237029E02B686B
:100C1000DB0426D46068FFF7D1FF6068FFF78CFF24
:100C20006068FFF7BFFF0123EFE7174B1D688023C4
:100C30001B011D400AD06068FFF70CFF6068FFF7DA
:100C400019FF0022114B5A620323DEE7FFF7FAFE79
:100C5000002806D06068FFF7FDFE6068FFF70AFF16
:100C6000257070BD084B1B681B05E4D4FFF7E2FE3E
:100C70000028F6D06068FFF7EDFE6068FFF7FAFE27
:100C80000423C2E70023C0E710040048002C014001
:100C9000037810B50400012B13D0002B02D0022BD7
:100CA00025D010BD4068FFF789FF6068FFF744FF5B
:100CB0006068FFF7CFFE6068FFF774FF01232370C1
:100CC000EFE7FFF7BFFE0028EBD06068FFF7D2FE2A
:100CD0000D4BE2685B6A60681380FFF71FFF606876
:100CE000FFF72AFF6068FFF75DFF0223E7E7FFF7E2
:100CF000A1FE0028D5D06068FFF7BCFE024B226938
:100D00005B6A13800323DAE7002C01400122054BC4
:100D10001A600223026851780B4304218B435370FD
:100D20007047C0461804004870B504000D00162234
:100D3000A35EA582AB4227D0207AC0B2052823D873
:100D4000FFF7E2F9037289A6B8CC0823864EF26851
:100D50001343F360736A1BB29D4232DAE068FFF717
:100D60002DFF726A218B521A12B295420DDBE06898
:100D7000FFF7E2FEE068FFF76DFE0423ADB2F56316
:100D80002372E068FFF70EFF70BD736A5B1A1BB237
:100D90009D42F6DAE068FFF7B9FF8021734A8903C4
:100DA000E368116001221B6859780A437F215A7059
:100DB0001A780A401A70238B5D19ADB2F5630323CC
:100DC000DEE7736A1BB29D42DEDDE068FFF7A6FE38
:100DD000726A238B9A1812B2954209DCE068FFF719
:100DE000ABFEADB2E068FFF735FEF5630223C7E75F
:100DF000726A9B181BB29D42C3DDE068FFF786FF55
:100E000080215A4A8903E368116001217F201B6811
:100E10005A780A435A701A7802401A70238BED1AD6
:100E2000ADB2F5632172ACE74F4E238B726A9A180C
:100E300012B295420BDCE068FFF77EFE726A238BEC
:100E40009B189BB26381F363052323729CE7ED1A21
:100E5000ADB2F56398E744494B6A1BB29D4208DA8C
:100E6000E068FFF7F7FDE068FFF704FE0023237258
:100E70005DE74A6A238B9A1812B2954200DA83E73B
:100E8000ED1AADB2CD63E068FFF740FF0123DCE768
:100E9000354E218B736A4A195B1A92B21BB2F26308
:100EA0009D4200DA70E7E068FFF746FE736A228B26
:100EB0009B1AC6E72C494B6A1BB29D42D0DC4A6A9A
:100EC000238BD21A12B2954200DD5DE75D19ADB2F7
:100ED000CD63E068FFF71AFF0323B6E7244B1A68D7
:100EE00052060CD40A21625EAA4208DA1E4A516AEE
:100EF000228B521812B2954201DA658144E71A68D2
:100F0000520606D4184E228B716A521812B29542BC
:100F100016DC1A6852061BD41B685B0600D433E744
:100F2000114E228B736A9B1A1BB29D4200DB2BE78A
:100F3000E068FFF7EBFE238B5D19ADB2F563CBE7FD
:100F4000E068FFF7E3FE238BED1AADB2F5639DE792
:100F50000A21625EAA42DFDD034A218B526A521ADD
:100F600012B29542D8DDC8E7002C014018000048B5
:100F7000100000480122044B196891431960196858
:100F80001142FCD17047C0463000024070B5802449
:100F9000074B24011B68234209D08568FFF7EAFF4D
:100FA000044B60351A6814431C6001232B7070BD1C
:100FB0001C380140203801400122044B196891433C
:100FC000196019681142FCD17047C0461C000240EC
:100FD0000123024A11680B4313607047300002403E
:100FE00010B52024084B1B6823420CD0FFF7E4FF08
:100FF000FFF7C0FFFF22054B1A60FFF7E9FF044B24
:101000001A6814431C6010BD000002403400024006
:101010000400024010B5FFF7F9F9032001210E4B3F
:101020001A6882431A601A680A431A600B4B1A68DE
:101030008A431A601A681A60094B1A6882431A6058
:101040001A681A60074B1A688A431A601A681A608D
:10105000054B1A681A6010BD0004004804040048DB
:10106000080400480C0400482004004810B5FFF7AD
:10107000C1F9902380218020DB051A680E4CC9013C
:1010800022401A601A68114319600C4B1968814399
:1010900019601A681A600A4B1A6822401A601A68A6
:1010A0001A60084B1A6882431A601A681A60064B65
:1010B0001A681A6010BDC046FF3FFFFF04000048D9
:1010C000080000480C0000482000004810B5FFF759
:1010D00091F9902380214020DB051A680E4C4901CC
:1010E00022401A601A68114319600C4B1968814339
:1010F00019601A681A600A4B1A6822401A601A6846
:101100001A60084B1A6882431A601A681A60064B04
:101110001A681A6010BDC046FFCFFFFF04000048E8
:10112000080000480C0000482000004810B5FFF7F8
:1011300061F9902380212020DB051A680E4CC9003C
:1011400022401A601A68114319600C4B19688143D8
:1011500019601A681A600A4B1A6822401A601A68E5
:101160001A60084B1A6882431A601A681A60064BA4
:101170001A681A6010BDC046FFF3FFFF0400004864
:10118000080000480C0000482000004810B5FFF798
:101190003DF9C0200F4B1A6882431A60402219683B
:1011A0000A4308211A600C4B1A688A431A601A68AD
:1011B0001A600A4B1A6882431A601A681A60084B50
:1011C0001A688A431A601A681A60064B1A681A600D
:1011D00010BDC0460004004804040048080400484C
:1011E0000C0400482004004810B5FFF703F99022D2
:1011F000D20513680F489B009B0813608023116879
:10120000DB050B4313600C4B1968014019601A6829
:101210001A600A4A13689B009B08136013681360E6
:10122000074B1A6802401A601A681A60054B5A6820
:101230005A6010BDFF7FFFFF04000048080000480F
:101240000C0000482000004810B5FFF7DFF88021AF
:1012500020200F4B0F4C1A68C90022401A601A68F0
:10126000114319600C4B1968814319601A681A60A0
:101270000A4B1A6822401A601A681A60084B1A68EA
:1012800082431A601A681A60064B1A681A6010BD09
:1012900000040048FFF3FFFF04040048080400486E
:1012A0000C0400482004004810B5FFF7AFF8802177
:1012B00010200F4B0F4C1A68490022401A601A6820
:1012C000114319600C4B1968814319601A681A6040
:1012D0000A4B1A6822401A601A681A60084B1A688A
:1012E00082431A601A681A60064B1A681A6010BDA9
:1012F00000040048FFFCFFFF040400480804004805
:101300000C0400482004004880230C491B0310B53E
:101310000B600368102008245A7802435A701A7828
:10132000A24380241A70064A240614601A78824365
:101330001A7080239B030B6010BDC0461804004840
:101340001800004810B5037B0400002B04D000698E
:10135000FFF7DAFF0323237310BD70B5046805009F
:10136000237A002B07D0E068FFF774FBE068FFF7F3
:1013700081FB002323726868FFF7E4FF0023AB734F
:1013800070BD70B5040000254068FFF763FB60681E
:10139000FFF770FB2570A068FFF7D4FF257070BDC4
:1013A000F0B501261021CA4D42682B68571DFA7FFF
:1013B000DB0B33408A431B011343FB772B68FA7F17
:1013C0009B0B491833408A435B01134385B0FB777D
:1013D0000400FFF72FFB0300F87F3340B0431843AE
:1013E000F8776768FFF72EFB02210537304043008E
:1013F000F87F082288431843636829680193802393
:101400001B011940F8770F007B1E9F41019BFF00D5
:101410000533D87F90433843D8772868DF7F800A28
:101420003040043A974380003843D8772868DF7FFC
:10143000800830403C32974380013843D877286891
:101440007F27F0400640D87FF60138400643DE771C
:10145000A04E002901D000237362736A019A012013
:1014600053841300117C20220833DF7FC908014018
:101470009743490139432700D977A6373A781100B5
:10148000014002928A0103924022D97F9143039A3C
:1014900011430200D97790490968C9098A43D200EB
:1014A00003920822D97F9143039A1143D977E268C6
:1014B0001178002294460A0703D4C906C90F484090
:1014C0008446624611011022D87F90430143D977A8
:1014D00020780138032826D8FEF72AFE04004F00A2
:1014E000CE001101029B002B0DD120005C30FFF7D4
:1014F000CDFA02230721237063680733DA7F8A431A
:10150000110001220DE02B681B040ED420005C307A
:10151000FFF7BCFA05220720636822700733D97FE2
:1015200081430A43DA7705B0F0BD2B681B04FAD576
:1015300026005C363000FFF74DFB3378032B09D1D2
:10154000002340213B70636830000833DA7F8A4310
:10155000DA77CCE7042B01D13000D9E72B685B05A3
:10156000E1D422000123A532137040223B7063684E
:101570000833D97F0A43DA77EEE7029A002A0BD0C4
:1015800001230721019A23700732D37F8B4319006F
:1015900003230B43D377C6E72A6852050DD42100F5
:1015A0000122A5310A703A70D97F3F320A43DA77B7
:1015B00020006830FFF7D1FEACE72B685B07F7D45B
:1015C0002B689B07F4D4FFF73DFA002806D0A268E9
:1015D000736A1A21525E1BB29A4221D1FFF72AFA8E
:1015E000002828D163680A229B5E002B31D0250099
:1015F0006835AB7B012B37D0022B00D093E7E36E2D
:101600001A7B002A03D01B7B032B00D08BE7FEF74D
:1016100053FE00282DD1FEF75BFE002829D182E77A
:1016200020006830FFF799FEA3685B8B7362726AD3
:1016300063685A8477E7A268736A1C21525E1BB202
:101640009A42CFD020006830FFF787FEA3689B8BBB
:10165000ECE7736A1BB2002BC9D12B681B05C6D4FB
:1016600001233B7023705EE7A36E1B7A002B00D032
:1016700059E70023AB7356E72B681B0404D4200002
:101680007830FFF70EFA45E72B681B0400D44AE7D1
:10169000260078363000FFF7FBFA3378032B1DD194
:1016A000A26863681A20115E3000D9831C21525E43
:1016B0001A84FFF7F6F90223072123706368A73421
:1016C000DA1DD37F8B4306390B43D37721702AE78A
:1016D00010040048002C0140100000482B685B05F6
:1016E00000D520E722000123A532137040223B7071
:1016F000636830000833D97F0A43DA77C1E7802373
:101700002A68DB001A4204D12200A5321278002A8E
:101710000DD12A681A420FD02B685B0500D402E76E
:1017200020004830FFF7C8F9A53400239AE72000CD
:101730004830FFF7C1F9F6E62600A5363378002BCE
:10174000EAD1200001254830FFF71BFE3570260046
:101750008C363D703000FFF763F8FA23DB0033610D
:101760003000FEF7F5FE402063683A78D91D083353
:101770002A40DD7F920185431543DD770523CA7F2B
:101780003938824323701343CB77CCE610B504007D
:10179000007BC0B205280DD8FEF7B6FC030D1A5623
:1017A000223C637B002B05D021002C48FFF712F868
:1017B0000023637310BD2A4B1A68120402D41B68FD
:1017C0005B07F7D52069FFF79FFD03232373F1E73C
:1017D000234B1A685204F5D41B689B07EAD5F1E73E
:1017E000E389A28A01339BB2E3819A42E2D80123C2
:1017F0000822237323691B491B680A601878024377
:1018000010201A705A7882435A7020230B600023EC
:10181000E381CFE7E389A28A01339BB2E3819A4255
:10182000C8D880210223104A09022373236911605A
:1018300010211B681A780A431A705A788A435A7022
:101840002022084B1A60E2E7E389A28A01339BB2A7
:10185000E3819A42AED800232373D9E750010020D8
:10186000100400481804004818000048437B002B6F
:101870000CD1074B5A684260002A00D090601A6869
:101880005860002A00D11860012343737047C04696
:1018900050010020194B10B51A680400120419D425
:1018A0001B685B0716D4037B002B13D10822036946
:1018B00013491B680A601878024310201A705A787E
:1018C00082435A7020230B601F3B23732000FFF7D5
:1018D000CDFF10BD237B022B04D12069FFF714FD3F
:1018E000042309E0237B042BFAD0237B052BF7D0BC
:1018F000237BDBB2032BECD12373EAE7100400480F
:10190000180400481A4B10B51A68040052041BD47E
:1019100002211B680B4217D1037B002B14D10369F2
:101920008020144A0002106010201B681A780243BD
:101930001A705A7882435A7020220F4B20001A6086
:101940002173FFF793FF10BD237B012B04D1206986
:10195000FFF7DAFC052309E0237B042BFAD0237B75
:10196000052BF7D0237BDBB2032BECD12373EAE703
:1019700010040048180000481804004870B504001E
:10198000092911D80800FEF7D3FB0A001000160041
:101990001E002A0054005C00690026026300626891
:1019A00053885383A268138270BD626893889383BF
:1019B000A2689374F8E76368DB88D03B5A425341CE
:1019C000A64A1370F0E7A54B1A78002A04D0616884
:1019D0000A890A83A168CA8101221A70E4E7237880
:1019E000022BE1D12600636868360A255D5FB37B70
:1019F000B581002B06D0012BD6D12900A06EFFF7B0
:101A000093F9D1E7E36E1A7B002A02D01B7B032BEC
:101A1000CAD1FEF751FC002806D02900A06EFFF7BE
:101A200083F90123B373BFE7FEF752FC0028F4D11A
:101A3000BAE7626893891385A2681BB2A385938273
:101A4000B2E76368A21DDB89D387A268D382ABE7C4
:101A50006368A2689B8AE3851383A5E72378002B3C
:101A600013D163681A7C12079ED501220721D81D65
:101A70002270C27F08338A43110003220A43C277CF
:101A80002022D97F0A43DA778EE7012B29D16368B8
:101A90001D7C2B07DE0F002B15DB20005C30FEF7D2
:101AA000F5FF072062682670D11DCB7F0832834383
:101AB000CB77137A1B07DB0FD17F19305B01814392
:101AC0000B43D37770E707263540022D00D06BE734
:101AD00020005C30FEF7DAFF0423237063689B1953
:101AE000A9E0032B16D163681B7C1B07DD0F002BBD
:101AF00000DA59E720007830FEF7D3FF072062684C
:101B00002570D11DCB7F08328343CB77137A1B0717
:101B1000DB0FD1E7022B00D092E063681B7C1A0731
:101B2000D50F002A04DB20006830FFF716FCE5E73C
:101B3000DA0601D49B0603D520006830FFF70DFCC0
:101B400063685A7C1307DB0F520700D489E1002B2E
:101B500006D1230068339B7B002B15D0022B1FD0AE
:101B60006368E56E5B7CDB0641D5FEF7B1FB0028C0
:101B700026D010212B693A4A11601A6880235178C7
:101B80005B420B4353701FE0FEF796FB002802D127
:101B9000E06EFFF77FFE2300022268339A73DFE7CF
:101BA000FEF78AFB0028DBD1E06EFFF773FED7E774
:101BB000FEF78EFB0028EED1E06EFFF7A3FEEAE70A
:101BC000FEF77AFB0028D4D1072663681D7C3540D8
:101BD000022D1FD120006830FFF7BFFB042362688D
:101BE00023709219D37FB3431D43D577DCE6FEF70C
:101BF0006FFB002809D08021194A49032B69116025
:101C00007F211A6853780B40BCE7FEF755FB00288C
:101C1000F1D1D9E7042D00D0C6E62300A7331B7805
:101C2000002B00D0C0E620006830FFF796FB0323AE
:101C3000237063680733DA7FB2431543DD77B3E679
:101C4000042B00D0A0E063681B7C1A07D50F002A84
:101C500008DB20004830FFF794FB4FE76C000020C2
:101C600018040048DB0606D5E06CFEF703FF2300EE
:101C7000002248331A7063681B7C9B0602D5206DD6
:101C8000FFF760FB6268517C0B07DB0F490700D44C
:101C9000FCE0002B05D1137C9B0602D4206DFFF7DE
:101CA000F9FD6368E06C1B7C5B0646D48022874BA1
:101CB00092031A600122036859780A437F215A70FF
:101CC0001A780A401A706368E06C1B7C7F2B37D847
:101CD000FEF732FF6268E06C517C8B07DB0FC907AF
:101CE00000D4DEE0002B09D1137CDB0606D42500EE
:101CF00048352B78002B26D0022B30D0E36C60685F
:101D00001A68457C72495378ED0637D510250D6069
:101D1000802149420B4307265370057C3540012D35
:101D200000D041E66B4B1B685B0500D43CE620000D
:101D30004830FFF726FB0223CFE6FEF78BFEC2E713
:101D4000FEF7E4FFC6E7634B1B689B04D6D4FEF79F
:101D5000E5FEE06CFEF726FF01232B70CEE7FEF7D1
:101D600089FEE06CF3E75B4B1B68DB04C6D4FEF72F
:101D700025FFE06CFEF716FF0223EEE780256D03DA
:101D80000D607F210B40C6E7052B00D00CE6072530
:101D900063681A7C2A40022A0CD121008C314869E0
:101DA0000969884206D3042158192170C17FA943CB
:101DB0000A43C2771A7C1207D10F002A00DAF3E532
:101DC00007202170D91DCA7F08338243CA7720219A
:101DD000DA7F8A4357E62378042B00D0E4E5626873
:101DE000D37C59061DD5260048363378002B00D009
:101DF000DAE5558A384BAD045B6AAD0C5B1BE06CD1
:101E00003382FEF799FEE06CFEF724FE002D05D02C
:101E1000E06CFEF7D3FEE06CFEF7C4FE03233370E4
:101E2000C2E5DB0900D1BFE5260048363378002B38
:101E300000D0B9E5558A284BAD045B6AAD0CEB18B0
:101E4000E06C3382FEF778FEE06CFEF703FE002DB7
:101E500005D0E06CFEF762FEE06CFEF7A3FE042303
:101E6000DDE7002B00D17BE6230068339B7B002B52
:101E700000D19DE6022B00D072E6FEF729FA002879
:101E800000D06DE6E06EFFF73DFD69E6002B00D166
:101E900007E7137C9B0600D503E7206DFFF732FDB3
:101EA000FFE6002B00D129E7137CDB0600D525E7F0
:101EB000250048352B78002B00D154E7012B00D0AA
:101EC0001CE7FEF7D7FDE06C51E7C046180000485C
:101ED0001804004810040048002C014070B5FEF7BB
:101EE00089FA9023DB051A68104D114C2A401A60BC
:101EF0008022196892020A431A600E4B186820402B
:101F000018601A681A600C4B1968294019601A6821
:101F10001A600A4B1A6822401A601A681A60022373
:101F2000074A51680B43536070BDC046FFFFFCFF7A
:101F3000FFFEFFFF04000048080000480C000048B6
:101F40002000004870B5FEF755FA9023DB051A68AB
:101F5000104D114C2A401A608022196812030A435E
:101F60001A600E4B1868204018601A681A600C4BF3
:101F70001968294019601A681A600A4B1A682240C9
:101F80001A601A681A602023074A51680B4353608D
:101F900070BDC046FFFFF3FFFFFDFFFF04000048D8
:101FA000080000480C0000482000004810B5FEF76B
:101FB00021FA9023C020DB051A6882431A60802230
:101FC00019680A4308211A600C4B1A688A431A6080
:101FD0001A681A600A4B1A6882431A601A681A60F3
:101FE000084B1A688A431A601A681A608023064AE6
:101FF0005B0111680B43136010BDC046040000482C
:10200000080000480C0000482000004810B5FEF70A
:10201000F1F990233020DB051A6882431A602022F0
:1020200019680A4304211A600C4B1A688A431A6023
:102030001A681A600A4B1A6882431A601A681A6092
:10204000084B1A688A431A601A681A608023064A85
:102050005B0011680B43136010BDC04604000048CC
:10206000080000480C0000482000004810B5FEF7AA
:10207000C1F990230C20DB051A6882431A600822FC
:1020800019680A4302211A600B4B1A688A431A60C6
:102090001A681A60094B1A6882431A601A681A6033
:1020A000074B1A688A431A601A681A601023054A97
:1020B00011680B43136010BD04000048080000487D
:1020C0000C0000482000004870B50E000500FFF726
:1020D0006DFFFFF79BFFFFF7C9FFFEF75DF934685F
:1020E000FEF766F92100FEF72DF83A4B3A4C1860DE
:1020F0003379012B6AD180232268DB0013432360EC
:102100007379002B5ED0802322689B001343334AEF
:102110002360136832491940B37900261B030B432F
:102120001360042321680B432360082321680B43B9
:10213000402123602B4B18680143196080211868E7
:1021400001432A2019602849086080211068090489
:10215000014311608022196852000A431A608022EC
:102160001968D2010A431A600123226813432360CD
:10217000FEF758F91D4B1E4A1D601E4B1A60FF22C8
:102180001D4B1A601D4B5F3A1E601A60FEF720FF60
:102190001B4B1C4A1D601C4B1A6090221B4B1E607F
:1021A0001A6080222168D2040A43226080221849E2
:1021B00012050A600222186802431A608023DB00BD
:1021C0000B6070BD2368134A1340A0E72368124ACE
:1021D000FAE7C0460C38014000380140043801409D
:1021E000FFCFFFFF08380140143801403C00024097
:1021F00024380140380002403400024030000240E0
:102200002800024028380140240002401C000240FF
:1022100000E100E0FFFDFFFFFFFBFFFFF0B5D94F3E
:1022200000233A00BDB00CAC236163606361A3601E
:102230002373D54B083220000C922361FEF788F9F6
:10224000626923699A42FBD30025D04B12ACD04E71
:1022500063602633E3602570A660FFF73FFEFFF75B
:1022600071FEFEF7EBF88021CA4B49001A6A702014
:102270000A431A62072299689143063A114399600A
:10228000D96981438C461021604601430320D961FE
:1022900099698143114399619969BF480140802040
:1022A000400008439861F020D9698143080050211B
:1022B0000143D9615D6219880A431A801422B35E12
:1022C000B64AA385626115AA226216AA62628022BA
:1022D000B34BD201A56125776577E5831C951A601C
:1022E000B04A1368AB4203D117AB136005E013008B
:1022F0005A68002AFBD117AA5A600025AA4BF18A16
:10230000236321AB1D705D230AAA9B181D70262331
:102310000AA81B18D98724AB1D7016AB63656366CA
:102320002367329333001EA91A332165E166339384
:102330002FA933000D80962129A8057017A8A06643
:102340001C330AA80918349338AB15AA0D701D70F8
:1023500030A93BAB08372264E26422660D70E26765
:102360006563A563E58736953795399535973A9531
:102370001D70C5231B181D70C62301241B181C705B
:10238000C7231B181D70FEF745FEFEF76FFEFEF714
:102390009DFEFEF7CBFEFEF7F9FEFEF725FFFEF7EA
:1023A00053FFFEF781FFFEF755F8804B774A1B6815
:1023B0009D610723D382F389FF351383338A5383C7
:1023C000B37C137093831A23F15ED1831C20335E98
:1023D0001384B08A518611000831CB87130056331D
:1023E0001C7013007249483310853F201980382330
:1023F000317CD087901C9485C5870B40082B4BD02F
:10240000102B4CD0182B4DD0202B4DD0282B4ED03C
:10241000302B4ED0383B581E834166485B42034008
:10242000E12040021B185A488C07007C4907C0076E
:10243000C90FC00F49000A930AAB18719971E40FD4
:102440001900D06D5C71FFF73FFE504B603307936E
:1024500012A8FEF7A5FF079B1B78DBB20593002BA4
:1024600000D155E10027FF22079B1F70524B1B68CC
:1024700004979BB2D61A00970197444BDA6D1978EE
:1024800012780223914203D00833002A00D1083B7E
:10249000023B082BF1D8AAE0E1239B01C3E7962376
:1024A000DB01C0E7E123FBE796231B02BBE7E12347
:1024B000FBE796235B02B6E702230193043396E021
:1024C00003230193DB1892E006260923023B8EE0EA
:1024D00000242E4B0599DA6D089306920732944634
:1024E000009A52000992A3B29F4200D8C9E0009B13
:1024F000089AE3185233D35C099A0293634618781A
:102500005B780002034360008018089A1BB2101821
:10251000C28F458D0392029A002A00D1A2E02DB20B
:10252000EA0FD817AB4242411140039A15B29D42BF
:1025300003DA50424241D3B20293029B1940022374
:1025400001349C44CFE70A23023B072E4FD9073BB7
:102550004DE00E4BB11EDC6DC9B22000A419FEF790
:102560000BF8A31E19780A23C2B2023B91423ED156
:10257000013C00122278C0B2063B824237D00633BB
:1025800035E0C046082B0008B80B0000D40000203E
:1025900094000020002C0140FFFCFFFFF82A0008F7
:1025A00000E100E064000020042B00081C00002073
:1025B000E02E00008063FEFF34000240594BDB6DCB
:1025C0009A78D9781202114300911A795F79120230
:1025D0001743CA19013A92B204925A781300032A97
:1025E00005D00423102A02D00123019305331800DB
:1025F000FDF794FDA9FFAFFFE4FF09002C006EFF7B
:102600006A00760090000A23023B082EEFD1049B5B
:10261000092B00D950E7002242497D00CB6D9D7007
:10262000974211DD009BC86D9B1808335B00CB18E7
:10263000DC88560080192412C470C86DDB888619A6
:1026400001323371D2B2EBE7EE1C3EE70A237A0087
:102650000932023BB242CAD1049A033B092AC6D9C5
:10266000033B2AE7029A9BB2AB42524103981140C6
:10267000059A834203D9020050424241D2B211402E
:102680005DE7002900D11BE70023264CBB420EDA90
:10269000069859004118009AC879D218097A520050
:1026A0000002A218084301335080DBB2EEE7009B22
:1026B000049A934200D907E75C1CA4B2190012A83F
:1026C000FFF75CF90094F2E78023164A5B42D16D74
:1026D0000326487803434B70D36D019A9A70F4E651
:1026E000104CF1B2E56D2800FDF746FFA855E26DEC
:1026F000731C0012D054FEF73DFC0236FEF75CFC62
:10270000094AB3B213600123084A11680B431360EE
:1027100030BF9DE6FEF72EFCFF22054B1A60FEF748
:1027200057FCF5E7D4000020200002401C000240C6
:1027300034000240044B1A69120603D5034A5A605A
:10274000034A5A607047C046002002402301674593
:10275000AB89EFCD70B5464D04002878042818D811
:10276000FDF7D2FC031D39586D002300383319786A
:102770000323002911D13F4A206A1378E418053455
:10278000C65CE07F864207D10133DBB2102B01D05B
:10279000137070BD1170FCE701232B70F9E7364E02
:1027A000F368DB07F5D433691B06F2D5FFF7C2FFE8
:1027B00001233269134333612E4BE06B1978236A8E
:1027C0005A5C2E4B1A701B78626B1B020B43520033
:1027D00013520223E1E7284BDA689206D9D520226A
:1027E000D9680A43DA60802219690A431A61234BC7
:1027F0001A78204B1B78E3180533DA778022636B55
:10280000920001336363934202D901233834237069
:102810000023C2E7184CE368DB07BAD423691B0620
:10282000B7D5FFF787FF0223226913432361144BB7
:10283000636140232269134323610423ADE70E4BF8
:10284000DA689206A5D52022D96800260A43DA6004
:102850008022196920000A431A61230038331E7050
:1028600024301022FF2100F014F966632E7090E7E7
:102870003E0000203C000020002002403D000020DF
:10288000007C0008424B434AF0B51A609022424B4C
:10289000D2051A60414B424A42491A60424B434AB0
:1028A00001241A60424B434A99B01A60424B434A92
:1028B0001A60434B434A1A60434B444A1A60444BE4
:1028C000444A1A600023444A13605360434A5160EB
:1028D00004219360106801431160022110680143D4
:1028E000116011683E48214311603E4AC381038252
:1028F00042613D4A436082618022D20182830200AC
:102900000E32026201225242426302003832836078
:1029100003731370354B364FC3638023354A847479
:10292000076011690B431361FDF7F8FF051E20D105
:102930002E2610223049684600F0A2F86E4410227C
:10294000694604A800F09CF8102204A9300000F0A9
:1029500097F8012308AC5B42636316AB1D70234BF1
:102960006560A5602573200008972662E363FDF784
:102970005DFF1B4C2000FDF7EBFD204A20492000A5
:1029800000F044F81F492048FDF774FF19B0F0BD6E
:10299000840000200010024070000020740000201D
:1029A000000400487FBB00007800002000080048B9
:1029B0007C000020000C004880000020001400482B
:1029C00090000020003801408C000020002C0140C5
:1029D00088000020003001405001002010E000E09D
:1029E000940000206400B80B0A0000C0007C0008BE
:1029F000D42A000800200240BC2A00080000002061
:102A00002D08000858010020D40000200B0010B54C
:102A10000100180000F002F810BD000010B504001D
:102A200004481300002804D00A000220210000E01E
:102A300000BF10BD0000000070B500260C4D0D4C0D
:102A4000641BA410A64209D1002600F02BF80A4D01
:102A50000A4C641BA410A64205D170BDB300EB580C
:102A600098470136EEE7B300EB5898470136F2E796
:102A7000142B0008142B0008142B00081C2B000832
:102A8000002310B59A4200D110BDCC5CC454013370
:102A9000F8E703001218934200D170471970013310
:102AA000F9E70000F8B5C046F8BC08BC9E46704780
:0C2AB000F8B5C046F8BC08BC9E46704754
:102ABC000000000001006400B80B0A0000C00040D8
:102ACC000000000000000000552700080000000076
:102ADC00000000008D0F0008000000000000000046
:102AEC00E10F00080000000000000000550B00087A
:102AFC0000000000000000008D170008000000001E
:082B0C0000000000AF02000808
:082B1400E90000088528000813
:042B1C00C1000008EC
:102B20000000000000000240080002401C000240BB
:102B300030000240440002405800024000000048BB
:040000050800025D90
:00000001FF
